:020000040800F2
:100000008831012055020008B1030008AD03000843
:10001000AF030008E50200086D07000800000000BB
:10002000000000000000000000000000A501000822
:10003000E702000800000000E901000809060008C6
:100040006F0200086F0200086F0200086F020008CC
:100050006F0200086F020008E90200086F02000842
:100060006F0200086F0200086F0200086F020008AC
:100070006F0200086F0200086F0200086F0200089C
:100080006F0200086F0200086F0200086F0200088C
:100090006F0200086F0200086F0200086F0200087C
:1000A0006F0200086F0200086F0200086F0200086C
:1000B0006F0200086F0200086F0200086F0200085C
:1000C0006F0200086F0200086F0200086F0200084C
:1000D0006F0200086F0200086F0200086F0200083C
:1000E0006F0200086F0200082F0400086F0200086A
:1000F0006F0200086F0200086F0200086F0200081C
:100100006F0200086F0200086F0200086F0200080B
:100110006F0200086F0200086F0200086F020008FB
:100120006F0200086F0200086F0200086F020008EB
:100130006F0200086F0200086F0200086F020008DB
:100140006F0200086F0200086F0200082D0400080B
:100150006F0200086F0200086F0200086F020008BB
:100160006F0200086F0200086F0200086F020008AB
:100170006F0200086F0200086F0200086F0200089B
:100180006F0200086F020008DFF80CD000F098F84A
:1001900000480047F10800088831012040BA704744
:1001A000C0BA7047234B19680868B0E8F04F80F375
:1001B00009884FF0000080F31188704700000000AC
:1001C00003480068006880F3088862B600DF00BF5B
:1001D00008ED00E0DFF80C00016841F470010160F7
:1001E000704700BF88ED00E0EFF30980114B1A68FB
:1001F0001EF0100F08BF20ED108A20E9F04F1060AC
:1002000008B54FF0500080F3118801F09BF84FF0D3
:10021000000080F31188BDE8084019680868B0E85C
:10022000F04F1EF0100F08BFB0EC108A80F3098861
:10023000704700BF38000020EFF311804FF05001ED
:1002400081F31188704780F311887047EFF30580C0
:10025000704700000648804706480047FEE7FEE773
:10026000FEE7FEE7FEE7FEE7FEE7FEE7FEE7FEE766
:100270002D0600088901000840EA01039B0703D00E
:1002800009E008C9121F08C0042AFAD203E011F8D5
:10029000013B00F8013B521EF9D27047D2B201E097
:1002A00000F8012B491EFBD270470022F6E710B57B
:1002B00013460A4604461946FFF7F0FF204610BDD4
:1002C000064C074D06E0E06840F0010394E80700A3
:1002D00098471034AC42F6D3FFF75AFF101C0008C1
:1002E000301C0008FEE770477047F0B5002301247A
:1002F00003270D6804FA03F21540954242D1D0F865
:1003000000C05E0007FA06F52CEA050CC0F800C034
:1003100091F804C0D0F800E00CFA06FC4CEA0E0C90
:10032000C0F800C091F804C0BCF1010F02D0BCF1CC
:10033000020F1FD1D0F808C02CEA050CC0F808C085
:1003400091F805C0D0F808E00CFA06FC4CEA0E0C57
:10035000C0F808C0D0F804C02CEA020CC0F804C0F1
:10036000426891F806C00CFA03FC1FFA8CFC42EAC2
:100370000C024260C268AA43C260CA79C568B24032
:100380002A43C2605B1C102BB3D3F0BD4B07DB0EBE
:100390009A40C90810B500EB8100016A0F249C4007
:1003A000A1430162016A1143016210BDFEE7FEE74D
:1003B0007047000070B50F21C478027801234FF018
:1003C000E026E4B1124C246804F4E064C4F5E0646F
:1003D000C4F30724C4F10405E1404478AC408578B7
:1003E0000D4025430B4C29011155007800F01F01E9
:1003F0008B40400906EB8000C0F8003170BD02F070
:100400001F008340500906EB8000C0F8803170BDAA
:100410000CED00E000E400E00249084302490860F6
:10042000704700000000FA050CED00E070477047CF
:10043000044A0029116801D0014300E081431160A2
:100440007047000030380240044A0029116801D08A
:10045000014300E0814311607047000040380240D2
:1004600070B5204A1168204C11F00C0104D06610C0
:10047000042903D0082903D004601BE0066019E0BA
:100480001849091F0B68C3F380550B6803F03F033D
:1004900015B1B6FBF3F301E0B4FBF3F30C680968A4
:1004A000C4F388146343C1F30141491C4900B3FB01
:1004B000F1F1016011680F2303EA11110B4B5C5C31
:1004C0000168E14041601468072505EA94241C5D39
:1004D00021FA04F48460126805EA52329A5CD14031
:1004E000C16070BD083802400024F4009C00002068
:1004F0001CB504460E48012150F82400FFF798FF70
:100500000B480021083830F81400009001208DF8C5
:1005100004008DF806108DF8070002208DF8050004
:100520000448694650F82400FFF7DFFE1CBD0000B8
:10053000001C000818000020044951F820104A69E6
:10054000034B33F8100042404A6170471800002006
:10055000F81B00080CB500202749019000900A689C
:1005600042F480320A604FF4A0630A6802F4003259
:100570000092019A521C0192009A12B9019A9A4271
:10058000F3D10A68920334D5012000901A48403014
:10059000026842F0805202601848026842F48042C9
:1005A00002601548083002680260026842F40042A6
:1005B0000260026842F4A0520260031F104A1A60EF
:1005C0000A6842F080720A600A689201FCD50D4AFE
:1005D00040F205611160016821F0030101600168CA
:1005E00041F0020101600168C1F381010229FAD1E1
:1005F0000CBD00900CBD00000038024000700040AF
:1006000008544007003C024010B5FFF715FE01F00A
:10061000B7F918B104494FF080500860BDE81040A8
:100620000020FFF710BE000004ED00E0124810B5F6
:10063000016841F4700101601048016841F0010156
:1006400001600E4A00210832116002680C4B1A400A
:100650000260031D0B4A1A60026822F480220260C5
:1006600006480C300160FFF775FF03494FF000604A
:100670008039086010BD000088ED00E000380240BD
:10068000FFFFF6FE103000240029818902D041F4DA
:10069000005101E021F400518181704702460020A1
:1006A00012880A4200D00120704700007FB504463E
:1006B000008A0D4620F44051E88808432082A08932
:1006C00041F20C618843A9882A8911436A8902434F
:1006D0001143A181A08A20F44071A8890843A08217
:1006E0006846FFF7BDFE1D48844202D01C48844284
:1006F00001D1039800E00298A1890904002900EBC8
:10070000C00101EB0010296802DA4FEA410101E063
:100710004FEA8101B0FBF1F26420B2FBF0F14FEA45
:1007200001114FEA11136FF018056B4302EB8302BE
:10073000A3891D044FF0320306D503EBC202B2FBBE
:10074000F0F000F0070005E003EB0212B2FBF0F05E
:1007500000F00F00084320817FBD00000010014021
:1007600000140140C1F3080181807047FEE70000DA
:1007700070B50C46084D0AE014F8011B2846FFF737
:10078000F1FF40212846FFF789FF0128F4D02078A7
:100790000028F6D170BD0000004C004040F2EE246D
:1007A0000220FFF7C9FE204600F0CCFCF8E74FF42A
:1007B000FA740120FFF7C0FE204600F0C3FCF8E702
:1007C000FEE70020FFF7B8FEFA2000F0BBFCF8E7D8
:1007D000084D4FF4617408A12846FFF7C9FF204671
:1007E00000F0B0FC0320FFF7A7FE204600F0AAFCB3
:1007F000F1E70000004C004068656C6C6F00000081
:1008000070B5012188B0C804FFF71EFE0121042045
:10081000FFF70EFE02208DF8050000248DF806403B
:10082000012541028DF807501F4E00918DF80400FC
:1008300069463046FFF759FDE80200908DF8074001
:1008400069463046FFF751FD08220A213046FFF77E
:100850009DFD08220B213046FFF798FD4FF41650FE
:100860000290ADF80C406803ADF80E00ADF81040F2
:100870000C200E4EADF81200ADF8144002A930461F
:10088000FFF714FF01213046FFF7FEFE34208DF8FC
:1008900018008DF819408DF81A408DF81B5006A8E5
:1008A000FFF788FD08B070BD00080240004C004012
:1008B00002E008C8121F08C1002AFAD17047704729
:1008C000002001E001C1121F002AFBD17047000087
:1008D00005490120096809B1002070470349C96929
:1008E0000029F9D170470000600100203800002085
:1008F0001FB54FF44070FFF78FFD4FF41650FFF710
:100900007FFF0120FFF7F4FD0020FFF7F1FD03203A
:10091000FFF7EEFD0220FFF7EBFD002400940194A9
:1009200002942346802219A11D48039400F04EFF33
:10093000009401940294002380221AA11E4803947B
:1009400000F044FF009401940294002380221BA134
:100950002048039400F03AFF00940194029400238D
:1009600080221DA12248039400F030FF00940194DE
:100970000294002380221FA12148039400F026FF47
:1009800000F09EFC04B0002010BD00004C65642007
:10099000426C696E6B205461736B20426C7565000C
:1009A000AF0700084C656420426C696E6B2054618F
:1009B000736B2052656400009D0700084C6564203D
:1009C000426C696E6B205461736B20477265656E73
:1009D00000000000C30700084C656420426C696E8B
:1009E0006B205461736B204F72616E67650000006D
:1009F000D107000853657269616C205461736B0004
:100A0000C107000870B50B4C054620684560A0681A
:100A10002168854201F1040104D2206BBDE87040D9
:100A200000F06DBAE06A00F06AFAA06A854200D26E
:100A3000A56270BD3800002010B500F085FA0C4C9E
:100A4000206880B90B4800F04CFA0A48143000F0D6
:100A500048FA0848A0601430E06000220C210A2007
:100A600000F0E0FC2060BDE8104000F07BBA000020
:100A700028000020AC00002030B403680D46002B95
:100A80000CD0026CC1688C18C46041688C4200D3E1
:100A9000C360C168284630BCFFF7EEBB30BC70476E
:100AA00070B51546026C044682B1BDB1E068FFF72F
:100AB000E3FBE168206C091AE1602268914202D2EE
:100AC0006168081AE060022D15D019E02068B8B9F5
:100AD000606800F091FB0020606011E0A068FFF703
:100AE000CBFB216CA0680844A0606168884207D3F2
:100AF0002068A06004E0A06B10B1A06B401EA06352
:100B0000A06B401CA06370BD06480168C96A09B1AA
:100B100000207047044909680129F9D8816A806872
:100B2000081A704738000020D40000200E4D0F4CEA
:100B30002868012801D900F0DBFAFFF7E5FF022859
:100B4000F6D300F0F7FBA06AA168884202D2FFF753
:100B500073FBFEE7FFF7D8FF022801D300F048FA45
:100B600000F0A4FFE4E70000D400002038000020DB
:100B700070B500240B4D41609142006106D8D11A36
:100B80008269914206D2011DE86807E09A4203D2C9
:100B9000994201D3012403E0011DA86800F0AFF9D8
:100BA000204670BD2800002030B587B0254D3EE0BE
:100BB000069C606910B1201D00F081F902A800F0C8
:100BC00089F80246049830B1012830D002281FD09D
:100BD00003282CD128E00598A1690346014420464A
:100BE000FFF7C6FF012822D1616A20468847E069E5
:100BF00001281CD1002000900598A169002342180B
:100C00001946204600F0CEFF88B9FFF715FBFEE736
:100C10000598A06128B1811813462046FFF7A8FF68
:100C200005E0FFF709FBFEE7204600F0A5F90023E9
:100C30001A4604A9286800F013FC0028B8D107B0B0
:100C400030BD0000280000202DE9FC410F4605467C
:100C500000F070FB01A800F03DF80446019818B1BF
:100C600000F024FFBDE8FC81194E37BBA54224D813
:100C700000F01CFFB0682746C068C468201D00F063
:100C80001EF9E069012811D1A0692B4641193A46A5
:100C90002046FFF76DFF012808D1002003460146DA
:100CA00000902A46204600F07DFF18B1616A204678
:100CB0008847D7E7FFF7C0FAFEE7291B306800F046
:100CC00023FA00F0F3FE0028CCD100F011FAC9E7B6
:100CD0002800002070B5054600F046FE064E04468A
:100CE0007068844203D200F009F8012000E000207F
:100CF00028602046746070BD28000020F8B5164DAD
:100D00001FE0C068C4680668201D00F0D8F8616A5A
:100D100020468847E069012813D1A0693044B042D9
:100D200006D924616060211DA86800F0E8F808E099
:100D300000200346014600903246204600F032FF74
:100D400038B1A86801680029DBD1E968C5E902105B
:100D5000F8BDFFF771FAFEE728000020074CA068F5
:100D6000016841B1C0680021D0F80000FFF76CFFB6
:100D7000FFF71AFFF3E701210020F7E72800002022
:100D800070B5044600F0E0F804F124050AE0606A5A
:100D900058B1284600F05AFE08B100F0EDF9A06CF9
:100DA000401EA064A06C0028F1DC4FF0FF36A66462
:100DB00000F0D8F800F0C8F804F110050AE0206946
:100DC00058B1284600F042FE08B100F0D5F9606C39
:100DD000401E6064606C0028F1DC6664BDE8704011
:100DE00000F0C0B82DE9F0410446002500F0A2FA59
:100DF000274A02F10801506801F1080360B925484B
:100E0000002720F00700C1E90007234EC3E9007660
:100E1000C0E90036012050601F48401E94B30834DA
:100E2000660704D004F00706C6F108063444661EBF
:100E3000864227D216480968083001E00846314644
:100E40004E68A64202D20E68002EF7D1994219D000
:100E500005680B68036048680835001B10280DD929
:100E60000B1958600A484C6008305E6800E0204664
:100E700004686768B742FAD31C6003604868116869
:100E8000081A106000F012FE2846BDE8F08100004C
:100E90008400002090010020F82B010010B5031FF2
:100EA0004FF080741C601B1F1960191F00230B601A
:100EB00014390A60091FDA1E44380A6010BDD0E9EF
:100EC00001128A60D0E90112516001694A688242C8
:100ED00001D182684A60002202610868401E0860F1
:100EE000704700F108014FF0FF32C0E90112C16004
:100EF000016100210160704700210161704730B538
:100F00000B685A1C02D000F1080202E0026904E0FA
:100F10002246546825689D42FAD953684B6099600F
:100F20008A60516008610168491C016030BD4268F7
:100F30004A6093688B6093685960916008610168AA
:100F4000491C01607047000010B5FFF775F90448AF
:100F50004168491CBFF34F8FBFF36F8F416010BDD5
:100F60006C00002003494868401E486001D1FFF72B
:100F70006AB970476C00002010B5002817D0A0F1A6
:100F8000080400F0D7F90A48616800E010460268DA
:100F900053688B42FAD322600460054861680838C0
:100FA000026811440160BDE8104000F07FBD10BD33
:100FB0008C0000200C486FF07F430C4902684FF40E
:100FC0007A70B2FBF0F0B3FBF0F3B2FBF2F2C1E9DE
:100FD00002032D23B3FBF2F20A614FF0E021401E21
:100FE0004861072008617047000000206C00002065
:100FF0002DE9F0472D4D0446E868844200D90446A7
:101000004FF0E0284FF00609C8F81090D8F81810F3
:10101000AA68601E02FB00162869864200D9361AAB
:1010200072B6FFF755FC0727E8B1C8F81460002036
:10103000C8F81800C8F8107024B1BFF34F8F30BF44
:10104000BFF36F8FC8F8109062B6D8F81010C903BC
:101050000ED5D8F81810AA68711A511A491EC8F886
:101060001410641E10E0C8F8107062B6BDE8F08776
:10107000AB68D8F818105C43621AB2FBF3F4611C39
:101080005943891AC8F81410C8F81800FFF75CFF14
:10109000C8F81070204600F03DF9A868401EC8F856
:1010A0001400BDE8F047FFF75DBF00006C000020B2
:1010B00010B5FFF7CBF80C4910280AD34FF0E02207
:1010C000104490F8F0030A78904202D2FFF7B4F887
:1010D000FEE706480068496900F4E060884202D9EA
:1010E000FFF7AAF8FEE710BD6C0000200CED00E051
:1010F00004494FF080500860BFF34F8FBFF36F8FEC
:101100007047000004ED00E070B50D460446FFF79F
:101110001BFF616C4FF00000491C00D16064A16CA2
:10112000491C00D1A064FFF71DFFA06B20B9294620
:1011300004F1240000F048F82046BDE87040FFF7B5
:101140001FBE000010B502000FD000F0F3F80948F0
:10115000816800688C18001DFFF7B1FE2046FFF77C
:1011600051FC00F0A3FC002803D1BDE81040FFF7BC
:10117000BFBF10BD3800002001490120C861704781
:101180003800002070B50C4680B10D4D296818312B
:10119000FFF7B5FE2868001DFFF791FE601C08D020
:1011A000A8682044BDE87040FFF72CBCFFF744F866
:1011B000FEE72968BDE87040091D0248FFF7B7BE89
:1011C000380000207401002070B50D4670B1094C44
:1011D00021681831FFF7ABFE2068001DFFF76FFE96
:1011E000A0682844BDE87040FFF70CBCFFF724F866
:1011F000FEE700003800002010B504001BD0616C31
:10120000E06A884217D0201DFFF759FE606CE0624B
:10121000C0F105000849A061E06ACA68904200D99F
:10122000C860064900EB800001EB8000211DBDE88D
:101230001040FFF77CBE10BD38000020D400002015
:1012400070B5040029D0154DE06A2968C96A884242
:1012500023D22868124EC06AC0F10500A061E16A7D
:10126000606901EB810106EB8101884212D1201DEA
:10127000FFF725FE2868C06AE062E968884200D965
:10128000E86000EB800006EB8000211DBDE87040A7
:10129000FFF74DBE2868C06AE06270BD38000020CC
:1012A000D400002010B528B104490A6A0260896898
:1012B000416010BDFEF7C0FFFEE7000038000020CF
:1012C0001FB50024009401940294234680220DA1AE
:1012D0000E48039400F07AFA012803D100F040FC94
:1012E000012804D000280CD1FEF7A6FFFEE7FEF788
:1012F000A3FF0748012101618460BDE81F4000F0A1
:101300004DB81FBD49444C45000000002D0B00089E
:1013100038000020064910B58A688B6A02449A4258
:1013200002D9FEF789FFFEE78A681044886010BD85
:101330003800002002484169491C416170470000A3
:1013400038000020134910B54A69134832B1012012
:10135000C86110BDD2B1CA68521ECA60CA6802EB29
:10136000820250F82220002ACA68F3D002EB8202DF
:1013700000EB820000F108034268526842609A4222
:1013800001D152684260D068086010BDFEF754FF7A
:10139000FEE7000038000020D40000201CB51D49E5
:1013A00008780190FF20087008788DF800009DF8FB
:1013B0000000194C00F0500020700720606107E029
:1013C0009DF80020A0F101004FEA42028DF80020B4
:1013D0009DF800201206F3D4000200F4E060606182
:1013E000019808700D48016841F4700101600168BE
:1013F00041F070410160FFF7DDFD00206060FEF705
:10140000E9FE0748016841F040410160FEF7D8FE5F
:1014100000201CBD00E400E06C00002020ED00E096
:1014200034EF00E070B50E46050016D04C20FFF7F3
:10143000D9FC040011D005FB06F0401CFFF7D2FCDC
:10144000206038B1C4E90F560121204600F097F81A
:10145000204670BD2046FFF78FFDFEF7EDFEFEE74C
:101460002DE9FF41002582B098460E46040002D0C7
:1014700000271EB107E0FEF7DFFEFEE7206C10B18B
:10148000FEF7DAFEFEE7FFF75FFDA06B50B33146D3
:101490002046E568FFF7F0FAB8F1000F10D0E560DC
:1014A000606A38B104F1240000F0D0FA10B100BF36
:1014B000FFF71EFEFFF756FD012006B0BDE8F081E4
:1014C000A06B401EA063206810B900F039FA60607C
:1014D00020690028EED004F1100000F0B7FA0128CE
:1014E000E6D0E7E7049808B11DB106E0FFF73AFD42
:1014F0001DE06846FFF7D6FE0125FFF733FDFFF735
:1015000019FFFFF721FD606C401C00D16764A06CDF
:10151000401C00D1A764FFF725FD04A9684600F030
:1015200029F930B12046FFF72BFC00F0BFFA00206C
:10153000C3E7FFF709FDA06B38B1FFF713FD2046A5
:10154000FFF71EFC00F0B2FA9DE7FFF70BFD2068E5
:1015500030B9FFF7F9FC6068FFF772FEFFF702FD94
:1015600004F124000499FFF70DFE2046FFF708FC64
:1015700000F09CFA002886D1FFF7BAFD83E770B52A
:101580000D46040023D0FFF7DFFCD4E90F202168CB
:1015900002FB001161600021A1632168A1600A467D
:1015A000E06B216C401E00FB01214FF0FF30E16039
:1015B0006064A06404F1100065B1FFF792FC04F1CF
:1015C0002400FFF78EFCFFF7CDFC012070BDFEF775
:1015D00033FEFEE721690029F5D000F037FA012833
:1015E000F1D1FFF785FDEEE72DE9FF41002682B03E
:1015F0001D468846040003D0B8F1000F03D007E071
:10160000FEF71AFEFEE7206C10B1FEF715FEFEE7AE
:101610000027022D05D1E06B012802D0FEF70CFE59
:10162000FEE7FFF791FCA06BE16B884205D3022D2A
:1016300003D00498B0B1C6B11BE02A46414620460B
:10164000FFF72EFA606A38B104F1240000F0FEF9C9
:10165000012801D1FFF74CFDFFF784FC012006B003
:10166000BDE8F081FFF77EFC1DE06846FFF71AFE3B
:101670000126FFF777FCFFF75DFEFFF765FC606C66
:10168000401C00D16764A06C401C00D1A764FFF728
:1016900069FC04A9684600F06DF830B12046FFF7F8
:1016A0006FFB00F003FA0020D9E7FFF74DFCA06BB9
:1016B000E16B884210D1FFF755FC04F1100004994A
:1016C000FFF760FD2046FFF75BFB00F0EFF9002815
:1016D000A7D1FFF70DFDA4E7FFF744FC2046FFF775
:1016E0004FFB00F0E3F99CE72DE9F0411D4616465B
:1016F0000F46040001D01FB107E0FEF79DFDFEE795
:10170000206C10B1FEF798FDFEE7022D05D1E06BCD
:10171000012802D0FEF790FDFEE7FFF7C9FCFEF7B7
:101720008BFD8046A06BE16B884208D3022D06D06A
:1017300000244046FEF787FD2046BDE8F0812A469A
:1017400039462046FFF7ACF9A06C401C04D0A06CD1
:10175000401CA0640124ECE7606A0028FAD004F180
:10176000240000F073F90028F4D0002EF2D00120FC
:101770003060EFE770B50D46040019D0DDB1FFF71A
:10178000E3FB114A91682868431C0FD02368126A52
:10179000934202D062688A4210D96268891A8142F3
:1017A0000CD2401A28602046FFF77CFD002406E09A
:1017B000FEF742FDFEE7FEF73FFDFEE70124FFF7DF
:1017C000D1FB204670BD0000380000202DE9FF5FEE
:1017D0001546DDE90E68109F8A465FEA000B04D0CB
:1017E000052E05D3FEF728FDFEE7FEF725FDFEE7F3
:1017F0004820FFF7F7FA04001CD0A80081469FB1EB
:101800003846206398B1A5224946FEF747FD6FF0A0
:101810000301206B01EB8501084420F007077807DE
:101820000BD0FEF709FDFEE7FFF7DCFAE9E72046FB
:10183000FFF7A2FB4FF0FF347AE051463546002017
:1018400022180B5C82F834300A5C12B1401C10285C
:10185000F6D3002184F84310052D00D30425E5625A
:10186000201D6564FFF748FB04F11800FFF744FBF7
:10187000C5F105012461A161646259463846039AA5
:10188000FFF70CFB2060B8F1000F01D0C8F8004052
:10189000FFF75AFB284D6868401C68602868DFF82D
:1018A0009C8010B1286920B328E02C60686801286A
:1018B00024D1002707EB870108EB8100FFF711FB1C
:1018C0007F1C052FF6D31D486430FFF70AFB1B4829
:1018D0007830FFF706FB19488C30FFF702FB1748FA
:1018E000A030FFF7FEFA15486430E8621430286330
:1018F00004E02868C06AB04200D82C60686A401CC6
:101900006862E06AE968884200D9E86000EB80011B
:1019100008EB8100211DFFF70AFB0124FFF722FBE2
:10192000286928B12868C06AB04201D2FFF7E0FBFD
:1019300004B02046BDE8F09F38000020D40000200D
:101940000148006870470000380000200548016920
:1019500019B1406918B1022070470020704701207A
:10196000704700003800002010B5FFF7EDFA03487B
:101970008468FFF7F7FA204610BD00003800002009
:101980002DE9F0472F4C0027606928B1A069401C61
:10199000A0613846BDE8F087A068401CA060A6683A
:1019A0004FF0FF39A6B9E06A006810B1FEF744FCB9
:1019B000FEE7E06A216BE1622063206A401C20623E
:1019C000E06A0068E8B1E06AC068C0684068A06288
:1019D000A06ADFF87480864209D3E06A006890B19B
:1019E000E06AC068C568686886420ED2A062206856
:1019F000C06A00EB800158F821000128C9D90127ED
:101A0000C7E74846E3E74846F0E7281DFFF757FADF
:101A1000A86A18B105F11800FFF751FAE86AE16801
:101A2000884200D9E06000EB800108EB8100291DAD
:101A3000FFF77DFAE86A2168C96A8842CDD3012799
:101A4000CBE7000038000020D400002070B5C0684B
:101A5000C46854B104F118000646FFF730FA114D7E
:101A6000686928B13146104811E0FEF7E5FBFEE752
:101A7000201DFFF724FAE06AE968884200D9E8608F
:101A8000094900EB80008C3901EB8000211DFFF734
:101A90004EFAE06A2968C96A884201D3012070BD04
:101AA000002070BD38000020600100202DE9F047C3
:101AB000294C00273E46606938B1FFF745FA606956
:101AC000401E6061606918B140E0FEF7B5FBFEE7BB
:101AD00061682248D1B3A0F18C098046D8F8001083
:101AE000E1B1D8F80C00C56805F11800FFF7E7F977
:101AF000281DFFF7E4F9E86AE168884200D9E06050
:101B000000EB800109EB8100291DFFF710FAE86A5C
:101B10002168C96A8842E1D30126DFE7A06940B99C
:101B20000AE000BFFFF72CFF00B10126A069401EAC
:101B3000A061A0690028F5D1012E02D0E06901283A
:101B400004D100200127E061FFF7D2FAFFF70AFA7B
:101B50003846BDE8F0870000380000206001002012
:101B60001FB5FEF769FF0B48006868B1002002212D
:101B7000CDE9001002900346CA01039006A108486F
:101B8000FFF724FE002802D1FEF756FBFEE704B063
:101B900010BD000028000020546D722053766300B1
:101BA0005D0D0008FEB5104C1D4603462768002059
:101BB000089E002F08D08DE80E0035B100232A467C
:101BC00069463846FFF790FDFEBDFFF7BFFE0128CE
:101BD0004FF0000305D0002269462068FFF704FD9E
:101BE000FEBD3246F8E70000280000200000060095
:101BF00001000100010000000010002000400080F2
:101C000008000000080000000800000008000000B4
:101C1000301C000800000020AC000000B0080008E4
:101C2000DC1C0008AC000020DC300100C00800080B
:101C3000007A030A00000000000000000102030413
:101C40000607080900000240000C0240000C024098
:101C5000000C0240000C02400000000000000000E8
:101C60000000000000000000000000000000000074
:101C70000000000000000000000000000000000064
:101C80000000000000000000000000000000000054
:101C9000FFFFFFFF00000000000000000000000048
:101CA000AAAAAAAA0000000000000000000000008C
:101CB00000000000F82B0100000000000000000000
:101CC0000000000000000000000000000000000014
:0C1CD000010203040102030406070809D6
:040000050800025598
:00000001FF
