:020000040800F2
:10000000883101205502000827070008230700084F
:1000100025070008E5020008250B00080000000085
:10002000000000000000000000000000A501000822
:100030005D06000800000000E901000895090008BD
:100040006F0200086F0200086F0200086F020008CC
:100050006F0200086F0200085F0600086F020008C8
:100060006F0200086F0200086F0200086F020008AC
:100070006F0200086F0200086F0200086F0200089C
:100080006F0200086F0200086F0200086F0200088C
:100090006F0200086F0200086F0200086F0200087C
:1000A0006F0200086F0200086F0200086F0200086C
:1000B0006F0200086F0200086F0200086F0200085C
:1000C0006F0200086F0200086F0200086F0200084C
:1000D0006F0200086F0200086F0200086F0200083C
:1000E0006F0200086F020008A30700086F020008F3
:1000F0006F0200086F0200086F0200086F0200081C
:100100006F0200086F0200086F0200086F0200080B
:100110006F0200086F0200086F0200086F020008FB
:100120006F0200086F0200086F0200086F020008EB
:100130006F0200086F0200086F0200086F020008DB
:100140006F0200086F0200086F020008A107000894
:100150006F0200086F0200086F0200086F020008BB
:100160006F0200086F0200086F0200086F020008AB
:100170006F0200086F0200086F0200086F0200089B
:100180006F0200086F020008DFF80CD000F098F84A
:1001900000480047850C00088831012040BA7047AC
:1001A000C0BA7047234B19680868B0E8F04F80F375
:1001B00009884FF0000080F31188704700000000AC
:1001C00003480068006880F3088862B600DF00BF5B
:1001D00008ED00E0DFF80C00016841F470010160F7
:1001E000704700BF88ED00E0EFF30980114B1A68FB
:1001F0001EF0100F08BF20ED108A20E9F04F1060AC
:1002000008B54FF0500080F3118801F0F3FA4FF079
:10021000000080F31188BDE8084019680868B0E85C
:10022000F04F1EF0100F08BFB0EC108A80F3098861
:10023000704700BF38000020EFF311804FF05001ED
:1002400081F31188704780F311887047EFF30580C0
:10025000704700000648804706480047FEE7FEE773
:10026000FEE7FEE7FEE7FEE7FEE7FEE7FEE7FEE766
:10027000B90900088901000840EA01039B0703D07F
:1002800009E008C9121F08C0042AFAD203E011F8D5
:10029000013B00F8013B521EF9D27047D2B201E097
:1002A00000F8012B491EFBD270470022F6E710B57B
:1002B00013460A4604461946FFF7F0FF204610BDD4
:1002C000064C074D06E0E06840F0010394E80700A3
:1002D00098471034AC42F6D3FFF75AFFC02000080D
:1002E000E0200008FEE70000094910B588424FF001
:1002F000010101D14C0601E04FF08064204600F07E
:1003000069FA2046BDE81040002100F063BA000001
:1003100000640040F0B5827A012191402D4A1368B3
:1003200043F0010313602B4B1C331C688C431C608F
:10033000284C284D077B0C3440352E1DA7B9276863
:100340008F4327604788B0F806C047EA0C4790F80B
:100350000AC045F83C700788B0F804C047EA0C476B
:1003600090F80AC046F83C70077B012F0ED1276831
:100370000F4327600468877A4FEA344445F83740D2
:100380004468857A4FEA344446F83540114CC57AC2
:10039000241D002D256806D00D4325600D4C0589D0
:1003A000143415B104E08D43F7E725688D432560CB
:1003B0000589012D02D125680D432560407B012868
:1003C00002D1186808431860106820F0010010601E
:1003D000F0BD00000066004010B50368002223F065
:1003E00002030360036843F0010303604FF6FF73E9
:1003F00000E0521C4468E40701D19A42F9D14268F6
:10040000D2073ED08A79012A02683CD022F08002CD
:100410000260CA79012A026838D022F040020260E4
:100420000A7A012A026834D022F0200202604A7A55
:10043000012A026830D022F0100202608A7A012A72
:1004400002682CD022F008020260CA7A012A0268EF
:1004500028D022F0040202608A78CC78920742EA1F
:1004600004620C7942EA04424C79098842EA045257
:10047000491E0A43C261016821F0010101600021A7
:1004800014E0002010BD42F08002C1E742F04002BB
:10049000C5E742F02002C9E742F01002CDE742F082
:1004A0000802D1E742F00402D5E7491C4268D207AE
:1004B00001D09942F9D14068C007E2D1012010BDB6
:1004C0000246002029B1012902D1106900F0030081
:1004D0007047D068FAE7000010B500EB0113D3F8BD
:1004E000B04114F004041472D3F8B0412BD0E408E6
:1004F000C2F8044003F5D8731C6804F00204547277
:100500005C6804F00F0494725C68240AD4749C68DC
:10051000D4729C68240A14739C68240C54739C68DD
:10052000240E9473DC68D473DC68240A1474DC68C9
:10053000240C5474DB681B0E937439B1016941F0CB
:100540002001016110BD640D1460D3E7C16841F062
:100550002001C16010BD30B50246002093685B01E8
:1005600008D49068000101D5012003E09068C00024
:1005700031D5022002EB0012D2F8803103F00103E2
:10058000C2F880310B7A43B3D2F880414D681C43E6
:100590004B7A43EAC5031C43C2F880418B7A02F5CB
:1005A000C07203F00F038B72536823F00F03536084
:1005B00053688C7A23435360CB7ACC6843EA042394
:1005C0009360CB7B096943EA0121D160116841F056
:1005D0000101116030BD042030BDD2F880314C7A69
:1005E00023430C8843EA4453C2F88031D6E7000025
:1005F000154A21B1012905D0022920D111E08068D6
:10060000124901E0806812490840811A904214D0D2
:100610000ADCA0B16FF0806140180FD002280CD125
:100620000FE080680B49EFE7B1F5007F09D00A4879
:10063000081803D0B0F5003F03D000207047022017
:10064000704701207047000000010008030000040B
:1006500000030008000003100001FFF77047704717
:10066000F0B50023012403270D6804FA03F21540B6
:10067000954242D1D0F800C05E0007FA06F52CEA98
:10068000050CC0F800C091F804C0D0F800E00CFAE6
:1006900006FC4CEA0E0CC0F800C091F804C0BCF196
:1006A000010F02D0BCF1020F1FD1D0F808C02CEA14
:1006B000050CC0F808C091F805C0D0F808E00CFAA5
:1006C00006FC4CEA0E0CC0F808C0D0F804C02CEAB6
:1006D000020CC0F804C0426891F806C00CFA03FC92
:1006E0001FFA8CFC42EA0C024260C268AA43C26054
:1006F000CA79C568B2402A43C2605B1C102BB3D3D1
:10070000F0BD4B07DB0E9A40C90810B500EB810025
:10071000016A0F249C40A1430162016A11430162F6
:1007200010BDFEE7FEE7704770B50F21C478027870
:1007300001234FF0E026E4B1124C246804F4E06495
:10074000C4F5E064C4F30724C4F10405E14044782F
:10075000AC4085780D4025430B4C2901115500789C
:1007600000F01F018B40400906EB8000C0F800310B
:1007700070BD02F01F008340500906EB8000C0F8F6
:10078000803170BD0CED00E000E400E00249084358
:1007900002490860704700000000FA050CED00E017
:1007A00070477047044A0029116801D0014300E0F6
:1007B000814311607047000030380240044A00292C
:1007C000116801D0014300E08143116070470000CF
:1007D00040380240044A0029116801D0014300E07A
:1007E00081431160704700002038024070B5204AF4
:1007F0001168204C11F00C0104D06610042903D0BC
:10080000082903D004601BE0066019E01849091F9D
:100810000B68C3F380550B6803F03F0315B1B6FBBB
:10082000F3F301E0B4FBF3F30C680968C4F3881434
:100830006343C1F30141491C4900B3FBF1F101607D
:1008400011680F2303EA11110B4B5C5C0168E14056
:1008500041601468072505EA94241C5D21FA04F41C
:100860008460126805EA52329A5CD140C16070BD62
:10087000083802400024F4009C0000201CB5044607
:100880000E48012150F82400FFF78CFF0B4800218F
:10089000083830F81400009001208DF804008DF81D
:1008A00006108DF8070002208DF8050004486946FF
:1008B00050F82400FFF7D4FE1CBD0000B020000853
:1008C00018000020044951F820104A69034B33F8FE
:1008D000100042404A61704718000020A82000081C
:1008E0000CB500202749019000900A6842F480323C
:1008F0000A604FF4A0630A6802F400320092019A81
:10090000521C0192009A12B9019A9A42F3D10A68D4
:10091000920334D5012000901A484030026842F01A
:10092000805202601848026842F480420260154812
:10093000083002680260026842F400420260026805
:1009400042F4A0520260031F104A1A600A6842F083
:1009500080720A600A689201FCD50D4A40F2056176
:100960001160016821F003010160016841F002019A
:1009700001600168C1F381010229FAD10CBD009028
:100980000CBD0000003802400070004008544007D1
:10099000003C024010B5FFF74FFC01F049FA18B1D6
:1009A00004494FF080500860BDE810400020FFF778
:1009B0004ABC000004ED00E0124810B5016841F4A3
:1009C000700101601048016841F0010101600E4AA8
:1009D00000210832116002680C4B1A400260031DAE
:1009E0000B4A1A60026822F48022026006480C302A
:1009F0000160FFF775FF03494FF000608039086020
:100A000010BD000088ED00E000380240FFFFF6FE58
:100A1000103000240029818902D041F4005101E006
:100A200021F40051818170470246002012880A4259
:100A300000D00120704700007FB50446008A0D46B3
:100A400020F44051E88808432082A08941F20C61DB
:100A50008843A9882A8911436A8902431143A181E5
:100A6000A08A20F44071A8890843A0826846FFF755
:100A7000BDFE1D48844202D01C48844201D1039827
:100A800000E00298A1890904002900EBC00101EBF4
:100A90000010296802DA4FEA410101E04FEA8101C2
:100AA000B0FBF1F26420B2FBF0F14FEA01114FEA22
:100AB00011136FF018056B4302EB8302A3891D0429
:100AC0004FF0320306D503EBC202B2FBF0F000F0A8
:100AD000070005E003EB0212B2FBF0F000F00F009C
:100AE000084320817FBD0000001001400014014038
:100AF000C1F308018180704770B50C46084D0AE0CB
:100B000014F8011B2846FFF7F3FF40212846FFF7A2
:100B10008BFF0128F4D020780028F6D170BD0000AA
:100B2000004C0040FEE702E008C8121F08C1002A7E
:100B3000FAD170477047002001E001C1121F002A5E
:100B4000FBD1704705490120096809B100207047B1
:100B50000349C9690029F9D17047000060010020EC
:100B60003800002070B51A4E88B03046FFF7BCFB45
:100B700000248DF816408DF8174005208DF81400DC
:100B8000012507208DF812508DF815008DF81340BF
:100B90001020ADF81000069404A93046FFF71CFCA5
:100BA0000E208DF80A008DF80B408DF80C50ADF832
:100BB0000040ADF80440ADF80240ADF80640ADF895
:100BC00008408DF80D506846FFF7A4FB08B070BDD3
:100BD0000064004070B5012188B0C804FFF7EEFD45
:100BE00001210420FFF7DEFD02208DF8050000241E
:100BF0008DF80640012541028DF807501F4E0091E7
:100C00008DF8040069463046FFF72AFDE80200909F
:100C10008DF8074069463046FFF722FD08220A2179
:100C20003046FFF76EFD08220B213046FFF769FDC5
:100C30004FF416500290ADF80C406803ADF80E006A
:100C4000ADF810400C200E4EADF81200ADF8144077
:100C500002A93046FFF7F0FE01213046FFF7DAFE29
:100C600034208DF818008DF819408DF81A408DF851
:100C70001B5006A8FFF758FD08B070BD00080240E1
:100C8000004C00401FB54FF44070FFF77FFD4FF45C
:100C90001650FFF79FFFFFF765FF0120FFF7EEFDFE
:100CA0000020FFF7EBFD0320FFF7E8FD0220FFF730
:100CB000E5FD0024009401940294234680221CA1A7
:100CC0002048039400F0DAFF00940194029400237A
:100CD00080221DA12148039400F0D0FF00940194CC
:100CE0000294002380221EA12348039400F0C6FF33
:100CF0000094019402940023802220A125480394AB
:100D000000F0BCFF0094019402940023802222A1F1
:100D10002448039400F0B2FF00F02AFD00F0A4FA8A
:100D200001462148FFF7E8FE04B0002010BD000096
:100D30004C656420426C696E6B205461736B204279
:100D40006C756500491300084C656420426C696E3F
:100D50006B205461736B205265640000811300089E
:100D60004C656420426C696E6B205461736B204744
:100D70007265656E000000005B1300084C6564201E
:100D8000426C696E6B205461736B204F72616E67A9
:100D9000650000006913000843414E205461736BE5
:100DA000000000003D130008004C004070B50B4CE3
:100DB000054620684560A0682168854201F104016C
:100DC00004D2206BBDE8704000F0F1BAE06A00F098
:100DD000EEFAA06A854200D2A56270BD38000020FC
:100DE00010B500F009FB0C4C206880B90B4800F0EE
:100DF000D0FA0A48143000F0CCFA0848A060143049
:100E0000E06000220C210A2000F064FD2060BDE8B3
:100E1000104000F0FFBA000028000020AC000020C5
:100E200030B403680D46002B0CD0026CC1688C18DE
:100E3000C46041688C4200D3C360C168284630BC9E
:100E4000FFF71ABA30BC704770B51546026C0446FD
:100E500082B1BDB1E068FFF70FFAE168206C091AB2
:100E6000E1602268914202D26168081AE060022DB6
:100E700015D019E02068B8B9606800F015FC0020B2
:100E8000606011E0A068FFF7F7F9216CA0680844E2
:100E9000A0606168884207D32068A06004E0A06B6E
:100EA00010B1A06B401EA063A06B401CA06370BD7E
:100EB00006480168C96A09B10020704704490968F9
:100EC0000129F9D8816A8068081A70473800002023
:100ED000D40000200E4D0F4C2868012801D900F0E5
:100EE0005FFBFFF7E5FF0228F6D300F07BFCA06A6A
:100EF000A168884202D2FFF79FF9FEE7FFF7D8FF0B
:100F0000022801D300F0CCFA01F028F8E4E7000051
:100F1000D40000203800002070B500240B4D416043
:100F20009142006106D8D11A8269914206D2011D10
:100F3000E86807E09A4203D2994201D3012403E012
:100F4000011DA86800F033FA204670BD280000207B
:100F500030B587B0254D3EE0069C606910B1201D7C
:100F600000F0DAF902A800F089F80246049830B1DE
:100F7000012830D002281FD003282CD128E0059862
:100F8000A169034601442046FFF7C6FF012822D18C
:100F9000616A20468847E06901281CD10020009042
:100FA0000598A169002342181946204601F052F81D
:100FB00088B9FFF741F9FEE70598A06128B18118CB
:100FC00013462046FFF7A8FF05E0FFF735F9FEE7D7
:100FD000204600F029FA00231A4604A9286800F0E8
:100FE00097FC0028B8D107B030BD000028000020D1
:100FF0002DE9FC410F46054600F0F4FB01A800F086
:101000003DF80446019818B100F0A8FFBDE8FC8146
:10101000194E37BBA54224D800F0A0FFB068274680
:10102000C068C468201D00F077F9E069012811D17B
:10103000A0692B4641193A462046FFF76DFF01286B
:1010400008D100200346014600902A46204601F0C0
:1010500001F818B1616A20468847D7E7FFF7ECF836
:10106000FEE7291B306800F0A7FA00F077FF0028A0
:10107000CCD100F095FAC9E72800002070B50546EC
:1010800000F0CAFE064E04467068844203D200F0A7
:1010900009F8012000E0002028602046746070BD3F
:1010A00028000020F8B5164D1FE0C068C468066827
:1010B000201D00F031F9616A20468847E069012867
:1010C00013D1A0693044B04206D924616060211D6B
:1010D000A86800F06CF908E0002003460146009083
:1010E0003246204600F0B6FF38B1A86801680029F2
:1010F000DBD1E968C5E90210F8BDFFF79DF8FEE70E
:1011000028000020074CA068016841B1C068002198
:10111000D0F80000FFF76CFFFFF71AFFF3E701219B
:101120000020F7E72800002070B5044600F064F9BD
:1011300004F124050AE0606A58B1284600F0DEFE9A
:1011400008B100F071FAA06C401EA064A06C0028E9
:10115000F1DC4FF0FF36A66400F05CF900F04CF9CA
:1011600004F110050AE0206958B1284600F0C6FED7
:1011700008B100F059FA606C401E6064606C002891
:10118000F1DC6664BDE8704000F044B92DE9F0413F
:101190000446002500F026FB274A02F108015068AA
:1011A00001F1080360B92548002720F00700C1E9D4
:1011B0000007234EC3E90076C0E9003601205060E5
:1011C0001F48401E94B30834660704D004F0070695
:1011D000C6F108063444661E864227D216480968BE
:1011E000083001E0084631464E68A64202D20E6839
:1011F000002EF7D1994219D005680B680360486842
:101200000835001B10280DD90B1958600A484C608E
:1012100008305E6800E0204604686768B742FAD389
:101220001C60036048681168081A106000F096FEA0
:101230002846BDE8F08100008400002090010020D5
:10124000F82B010010B5031F4FF080741C601B1FAA
:101250001960191F00230B6014390A60091FDA1E78
:1012600044380A6010BD00002DE9F0418AB0002624
:10127000112000908DF809608DF8086002208DF82B
:101280000A00FE208DF80B00CA20224D8DF80C00BC
:10129000344669462846FFF75EF980464FF6FF77E9
:1012A00000E0761C41462846FFF7A2F9012801D04C
:1012B000BE42F6D1002600E0761C00212846FFF74A
:1012C000FFF808B9BE42F7D18DF81C408DF81E40DA
:1012D00005948DF81F408DF8204005AA002128466E
:1012E000FFF7FAF8059811280DD19DF81C0050B9A8
:1012F0009DF81E00022806D1BDF81F0040BAA0F5D7
:101300004A41FE3903D061200AB0BDE8F0817A205D
:10131000FAE7000000640040D0E901128A60D0E9D9
:101320000112516001694A68824201D182684A60B3
:10133000002202610868401E086070474FF4FA748A
:10134000204600F057F9FBE74FF4FA740120FFF74D
:10135000B9FA204600F04EF9F8E70020FFF7B2FA9C
:10136000FA2000F047F9F8E74FF46174204600F0E6
:1013700041F90320FFF7A6FA204600F03BF9F5E714
:1013800040F2EE240220FFF79DFA204600F032F9E9
:10139000F8E700F108014FF0FF32C0E90112C16027
:1013A000016100210160704700210161704730B583
:1013B0000B685A1C02D000F1080202E0026904E046
:1013C0002246546825689D42FAD953684B6099605B
:1013D0008A60516008610168491C016030BD426843
:1013E0004A6093688B6093685960916008610168F6
:1013F000491C01607047000010B5FEF71DFF04484E
:101400004168491CBFF34F8FBFF36F8F416010BD20
:101410006C00002003494868401E486001D1FEF777
:1014200012BF70476C00002010B5002817D0A0F143
:10143000080400F0D7F90A48616800E01046026825
:1014400053688B42FAD3226004600548616808380B
:10145000026811440160BDE8104000F07FBD10BD7E
:101460008C0000200C486FF07F430C4902684FF459
:101470007A70B2FBF0F0B3FBF0F3B2FBF2F2C1E929
:1014800002032D23B3FBF2F20A614FF0E021401E6C
:101490004861072008617047000000206C000020B0
:1014A0002DE9F0472D4D0446E868844200D90446F2
:1014B0004FF0E0284FF00609C8F81090D8F818103F
:1014C000AA68601E02FB00162869864200D9361AF7
:1014D00072B6FFF737FB0727E8B1C8F814600020A1
:1014E000C8F81800C8F8107024B1BFF34F8F30BF90
:1014F000BFF36F8FC8F8109062B6D8F81010C90308
:101500000ED5D8F81810AA68711A511A491EC8F8D1
:101510001410641E10E0C8F8107062B6BDE8F087C1
:10152000AB68D8F818105C43621AB2FBF3F4611C84
:101530005943891AC8F81410C8F81800FFF75CFF5F
:10154000C8F81070204600F03DF9A868401EC8F8A1
:101550001400BDE8F047FFF75DBF00006C000020FD
:1015600010B5FEF773FE0C4910280AD34FF0E022A5
:10157000104490F8F0030A78904202D2FEF75CFE25
:10158000FEE706480068496900F4E060884202D935
:10159000FEF752FEFEE710BD6C0000200CED00E0EF
:1015A00004494FF080500860BFF34F8FBFF36F8F37
:1015B0007047000004ED00E070B50D460446FFF7EB
:1015C0001BFF616C4FF00000491C00D16064A16CEE
:1015D000491C00D1A064FFF71DFFA06B20B929466C
:1015E00004F1240000F048F82046BDE87040FFF701
:1015F0009BBD000010B502000FD000F0F3F80948C1
:10160000816800688C18001DFFF786FE2046FFF7F2
:10161000CDFB00F0A3FC002803D1BDE81040FFF78C
:10162000BFBF10BD3800002001490120C8617047CC
:101630003800002070B50C4680B10D4D2968183176
:10164000FFF7B5FE2868001DFFF766FE601C08D096
:10165000A8682044BDE87040FFF7A8BBFEF7ECFD8A
:10166000FEE72968BDE87040091D0248FFF7B7BED4
:10167000380000207401002070B50D4670B1094C8F
:1016800021681831FFF7ABFE2068001DFFF744FE0C
:10169000A0682844BDE87040FFF788BBFEF7CCFD8A
:1016A000FEE700003800002010B504001BD0616C7C
:1016B000E06A884217D0201DFFF72EFE606CE062C2
:1016C000C0F105000849A061E06ACA68904200D9EB
:1016D000C860064900EB800001EB8000211DBDE8D9
:1016E0001040FFF77CBE10BD38000020D400002061
:1016F00070B5040029D0154DE06A2968C96A88428E
:1017000023D22868124EC06AC0F10500A061E16AC8
:10171000606901EB810106EB8101884212D1201D35
:10172000FFF7FAFD2868C06AE062E968884200D9DC
:10173000E86000EB800006EB8000211DBDE87040F2
:10174000FFF74DBE2868C06AE06270BD3800002017
:10175000D400002010B528B104490A6A02608968E3
:10176000416010BDFEF768FDFEE700003800002074
:101770001FB50024009401940294234680220DA1F9
:101780000E48039400F07AFA012803D100F040FCDF
:10179000012804D000280CD1FEF74EFDFEE7FEF72D
:1017A0004BFD0748012101618460BDE81F4000F046
:1017B0004DB81FBD49444C4500000000D50E00083F
:1017C00038000020064910B58A688B6A02449A42A4
:1017D00002D9FEF731FDFEE78A681044886010BD2B
:1017E0003800002002484169491C416170470000EF
:1017F00038000020134910B54A69134832B101205E
:10180000C86110BDD2B1CA68521ECA60CA6802EB74
:10181000820250F82220002ACA68F3D002EB82022A
:1018200000EB820000F108034268526842609A426D
:1018300001D152684260D068086010BDFEF7FCFC20
:10184000FEE7000038000020D40000201CB51D4930
:1018500008780190FF20087008788DF800009DF846
:101860000000194C00F0500020700720606107E074
:101870009DF80020A0F101004FEA42028DF80020FF
:101880009DF800201206F3D4000200F4E0606061CD
:10189000019808700D48016841F470010160016809
:1018A00041F070410160FFF7DDFD00206060FEF750
:1018B00091FC0748016841F040410160FEF780FC5F
:1018C00000201CBD00E400E06C00002020ED00E0E2
:1018D00034EF00E070B50E46050016D04C20FFF73F
:1018E00055FC040011D005FB06F0401CFFF74EFC30
:1018F000206038B1C4E90F560121204600F097F866
:10190000204670BD2046FFF78FFDFEF795FCFEE7F1
:101910002DE9FF41002582B098460E46040002D012
:1019200000271EB107E0FEF787FCFEE7206C10B130
:10193000FEF782FCFEE7FFF75FFDA06B50B3314678
:101940002046E568FFF76CFAB8F1000F10D0E560AB
:10195000606A38B104F1240000F0D0FA10B100BF81
:10196000FFF71EFEFFF756FD012006B0BDE8F0812F
:10197000A06B401EA063206810B900F039FA6060C7
:1019800020690028EED004F1100000F0B7FA012819
:10199000E6D0E7E7049808B11DB106E0FFF73AFD8D
:1019A0001DE06846FFF7D6FE0125FFF733FDFFF780
:1019B00019FFFFF721FD606C401C00D16764A06C2B
:1019C000401C00D1A764FFF725FD04A9684600F07C
:1019D00029F930B12046FFF7A7FB00F0BFFA00203D
:1019E000C3E7FFF709FDA06B38B1FFF713FD2046F1
:1019F000FFF79AFB00F0B2FA9DE7FFF70BFD2068B6
:101A000030B9FFF7F9FC6068FFF772FEFFF702FDDF
:101A100004F124000499FFF70DFE2046FFF784FB34
:101A200000F09CFA002886D1FFF7BAFD83E770B575
:101A30000D46040023D0FFF7DFFCD4E90F20216816
:101A400002FB001161600021A1632168A1600A46C8
:101A5000E06B216C401E00FB01214FF0FF30E16084
:101A60006064A06404F1100065B1FFF792FC04F11A
:101A70002400FFF78EFCFFF7CDFC012070BDFEF7C0
:101A8000DBFBFEE721690029F5D000F037FA0128D9
:101A9000F1D1FFF785FDEEE72DE9FF41002682B089
:101AA0001D468846040003D0B8F1000F03D007E0BC
:101AB000FEF7C2FBFEE7206C10B1FEF7BDFBFEE7B0
:101AC0000027022D05D1E06B012802D0FEF7B4FB00
:101AD000FEE7FFF791FCA06BE16B884205D3022D76
:101AE00003D00498B0B1C6B11BE02A464146204657
:101AF000FFF7AAF9606A38B104F1240000F0FEF99A
:101B0000012801D1FFF74CFDFFF784FC012006B04E
:101B1000BDE8F081FFF77EFC1DE06846FFF71AFE86
:101B20000126FFF777FCFFF75DFEFFF765FC606CB1
:101B3000401C00D16764A06C401C00D1A764FFF773
:101B400069FC04A9684600F06DF830B12046FFF743
:101B5000EBFA00F003FA0020D9E7FFF74DFCA06B89
:101B6000E16B884210D1FFF755FC04F11000049995
:101B7000FFF760FD2046FFF7D7FA00F0EFF90028E5
:101B8000A7D1FFF70DFDA4E7FFF744FC2046FFF7C0
:101B9000CBFA00F0E3F99CE72DE9F0411D4616462B
:101BA0000F46040001D01FB107E0FEF745FBFEE73A
:101BB000206C10B1FEF740FBFEE7022D05D1E06B73
:101BC000012802D0FEF738FBFEE7FFF7C9FCFEF75D
:101BD00033FB8046A06BE16B884208D3022D06D010
:101BE00000244046FEF72FFB2046BDE8F0812A4640
:101BF00039462046FFF728F9A06C401C04D0A06CA1
:101C0000401CA0640124ECE7606A0028FAD004F1CB
:101C1000240000F073F90028F4D0002EF2D0012047
:101C20003060EFE770B50D46040019D0DDB1FFF765
:101C3000E3FB114A91682868431C0FD02368126A9D
:101C4000934202D062688A4210D96268891A81423E
:101C50000CD2401A28602046FFF77CFD002406E0E5
:101C6000FEF7EAFAFEE7FEF7E7FAFEE70124FFF7E0
:101C7000D1FB204670BD0000380000202DE9FF5F39
:101C80001546DDE90E68109F8A465FEA000B04D016
:101C9000052E05D3FEF7D0FAFEE7FEF7CDFAFEE7F4
:101CA0004820FFF773FA04001CD0A80081469FB1BA
:101CB0003846206398B1A5224946FEF7EFFA6FF047
:101CC0000301206B01EB8501084420F0070778072A
:101CD0000BD0FEF7B1FAFEE7FFF758FAE9E7204626
:101CE000FFF7A2FB4FF0FF347AE051463546002063
:101CF00022180B5C82F834300A5C12B1401C1028A8
:101D0000F6D3002184F84310052D00D30425E562A5
:101D1000201D6564FFF748FB04F11800FFF744FB42
:101D2000C5F105012461A161646259463846039AF0
:101D3000FFF788FA2060B8F1000F01D0C8F8004022
:101D4000FFF75AFB284D6868401C68602868DFF878
:101D50009C8010B1286920B328E02C6068680128B5
:101D600024D1002707EB870108EB8100FFF711FB67
:101D70007F1C052FF6D31D486430FFF70AFB1B4874
:101D80007830FFF706FB19488C30FFF702FB174845
:101D9000A030FFF7FEFA15486430E862143028637B
:101DA00004E02868C06AB04200D82C60686A401C11
:101DB0006862E06AE968884200D9E86000EB800167
:101DC00008EB8100211DFFF70AFB0124FFF722FB2E
:101DD000286928B12868C06AB04201D2FFF7E0FB49
:101DE00004B02046BDE8F09F38000020D400002059
:101DF000014800687047000038000020054801696C
:101E000019B1406918B102207047002070470120C5
:101E1000704700003800002010B5FFF7EDFA0348C6
:101E20008468FFF7F7FA204610BD00003800002054
:101E30002DE9F0472F4C0027606928B1A069401CAC
:101E4000A0613846BDE8F087A068401CA060A66885
:101E50004FF0FF39A6B9E06A006810B1FEF7ECF95F
:101E6000FEE7E06A216BE1622063206A401C206289
:101E7000E06A0068E8B1E06AC068C0684068A062D3
:101E8000A06ADFF87480864209D3E06A006890B1E6
:101E9000E06AC068C568686886420ED2A0622068A1
:101EA000C06A00EB800158F821000128C9D9012738
:101EB000C7E74846E3E74846F0E7281DFFF72CFA56
:101EC000A86A18B105F11800FFF726FAE86AE16878
:101ED000884200D9E06000EB800108EB8100291DF9
:101EE000FFF77DFAE86A2168C96A8842CDD30127E5
:101EF000CBE7000038000020D400002070B5C06897
:101F0000C46854B104F118000646FFF705FA114DF4
:101F1000686928B13146104811E0FEF78DF9FEE7F7
:101F2000201DFFF7F9F9E06AE968884200D9E86006
:101F3000094900EB80008C3901EB8000211DFFF77F
:101F40004EFAE06A2968C96A884201D3012070BD4F
:101F5000002070BD38000020600100202DE9F0470E
:101F6000294C00273E46606938B1FFF745FA6069A1
:101F7000401E6061606918B140E0FEF75DF9FEE760
:101F800061682248D1B3A0F18C098046D8F80010CE
:101F9000E1B1D8F80C00C56805F11800FFF7BCF9ED
:101FA000281DFFF7B9F9E86AE168884200D9E060C6
:101FB00000EB800109EB8100291DFFF710FAE86AA8
:101FC0002168C96A8842E1D30126DFE7A06940B9E8
:101FD0000AE000BFFFF72CFF00B10126A069401EF8
:101FE000A061A0690028F5D1012E02D0E069012886
:101FF00004D100200127E061FFF7D2FAFFF70AFAC7
:102000003846BDE8F087000038000020600100205D
:102010001FB5FEF7E5FE0B48006868B100200221FD
:10202000CDE9001002900346CA01039006A10848BA
:10203000FFF724FE002802D1FEF7FEF8FEE704B009
:1020400010BD000028000020546D722053766300FC
:1020500005110008FEB5104C1D46034627680020F8
:10206000089E002F08D08DE80E0035B100232A46C7
:1020700069463846FFF790FDFEBDFFF7BFFE012819
:102080004FF0000305D0002269462068FFF704FDE9
:10209000FEBD3246F8E700002800002000000600E0
:1020A000010001000100000000100020004000803D
:1020B0000800000008000000080000000800000000
:1020C000E020000800000020AC000000260B000803
:1020D0008C210008AC000020DC300100360B000829
:1020E000007A030A0000000000000000010203045F
:1020F0000607080900000240000C0240000C0240E4
:10210000000C0240000C0240000000000000000033
:1021100000000000000000000000000000000000BF
:1021200000000000000000000000000000000000AF
:10213000000000000000000000000000000000009F
:10214000FFFFFFFF00000000000000000000000093
:10215000AAAAAAAA000000000000000000000000D7
:1021600000000000F82B010000000000000000004B
:10217000000000000000000000000000000000005F
:0C21800001020304010203040607080921
:040000050800025598
:00000001FF
