:020000040800F2
:10000000B831012055020008610700085D070008AB
:100010005F0700082B0400087D0C000800000000AA
:10002000000000000000000000000000A501000822
:100030008906000800000000E9010008090A00081C
:100040006F0200086F0200086F0200086F020008CC
:100050006F0200086F0200088B0600086F0200089C
:100060006F0200086F0200086F0200086F020008AC
:100070006F0200086F0200086F0200086F0200089C
:100080006F0200086F0200086F0200086F0200088C
:100090002D0400086F0200086F0200086F020008BC
:1000A0006F0200086F0200086F0200086F0200086C
:1000B000890A00086F0200086F0200086F0200083A
:1000C0006F0200086F0200086F0200086F0200084C
:1000D0006F0200086F0200086F0200086F0200083C
:1000E0006F0200086F020008FF0700086F02000897
:1000F0006F0200086F0200086F0200086F0200081C
:100100006F0200086F0200086F0200086F0200080B
:100110006F0200086F0200086F0200086F020008FB
:10012000C10400086F0200086F0200086F02000897
:100130006F0200086F0200086F0200086F020008DB
:100140006F0200086F0200086F020008FD07000838
:100150006F0200086F0200086F0200086F020008BB
:100160006F0200086F0200086F0200086F020008AB
:100170006F0200086F0200086F0200086F0200089B
:100180006F0200086F020008DFF80CD000F098F84A
:1001900000480047E10E0008B831012040BA70471E
:1001A000C0BA7047234B19680868B0E8F04F80F375
:1001B00009884FF0000080F31188704700000000AC
:1001C00003480068006880F3088862B600DF00BF5B
:1001D00008ED00E0DFF80C00016841F470010160F7
:1001E000704700BF88ED00E0EFF30980114B1A68FB
:1001F0001EF0100F08BF20ED108A20E9F04F1060AC
:1002000008B54FF0500080F3118801F0F5FB4FF076
:10021000000080F31188BDE8084019680868B0E85C
:10022000F04F1EF0100F08BFB0EC108A80F3098861
:10023000704700BF44000020EFF311804FF05001E1
:1002400081F31188704780F311887047EFF30580C0
:10025000704700000648804706480047FEE7FEE773
:10026000FEE7FEE7FEE7FEE7FEE7FEE7FEE7FEE766
:100270002D0A00088901000840EA01039B0703D00A
:1002800009E008C9121F08C0042AFAD203E011F8D5
:10029000013B00F8013B521EF9D27047D2B201E097
:1002A00000F8012B491EFBD270470022F6E710B57B
:1002B00013460A4604461946FFF7F0FF204610BDD4
:1002C000064C074D06E0E06840F0010394E80700A3
:1002D00098471034AC42F6D3FFF75AFFC422000807
:1002E000E42200080029816802D041F0010101E008
:1002F00021F0010181607047074B10B51A6807496A
:100300000A40D0E900142143D0E9024004432143CC
:100310001143196010BD000004230140E030FCFFD0
:100320000029816802D041F4807101E021F48071DC
:10033000816070470029816802D041F4007101E0BA
:1003400021F400718160704710B501210C02204634
:1003500000F07AFA2046BDE81040002100F074BA9F
:1003600030B542680F4B0C791A400B6842EA042200
:100370001343436082680C4B4D791A40D1E9034323
:1003800023438C6844EA4504234313438360C26AD1
:10039000097D22F47002491EC9B242EA0151C162CC
:1003A00030BD0000FFFEFFFCFDF7FFC070B5072465
:1003B00009290AD9C568A1F10A0606EB4606B44028
:1003C000A543B3401D43C56007E0056901EB410645
:1003D000B440A543B3401D4305611F23072A09D23A
:1003E000446B521E02EB820293409C4391400C43AB
:1003F000446370BD0D2A09D2046BD21F02EB820246
:1004000093409C4391400C43046370BDC46A0D3A11
:1004100002EB820293409C4391400C43C46270BD46
:10042000816841F0804181607047FEE70248002109
:100430004268024800F004B8280000200064004030
:1004400010B500EB0113D3F8B04114F0040414729A
:10045000D3F8B0412BD0E408C2F8044003F5D873B8
:100460001C6804F0020454725C6804F00F04947277
:100470005C68240AD4749C68D4729C68240A14733F
:100480009C68240C54739C68240E9473DC68D473A9
:10049000DC68240A1474DC68240C5474DB681B0EBA
:1004A000937439B1016941F02001016110BD640DFF
:1004B0001460D3E7C16841F02001C16010BD0000A5
:1004C00010B50D4C0B49204600F070F8002810D0F4
:1004D0000A48002100F1100230F8113022F81130E2
:1004E000491C0829F8DB2046BDE81040044900F00B
:1004F00009B810BD2080001010640240B800002030
:1005000020000010074A904201D2074801E0054848
:100510001038064A8B0001EA020101D5C16070471C
:100520008160704710640240006002407D0F7D0FC3
:100530000029016802D041F0010101E021F0010130
:100540000160704710B590B000F00BF911490291AD
:1005500011490020CDE900010821CDE90301C901BD
:10056000CDE90501490007918900089149110991D8
:100570004902CDE90A100121CDE90C10074C0E907B
:100580006946204600F056F801212046FFF7D0FFCB
:1005900010B010BDB80000204C2001401064024093
:1005A000014931F810007047C800002030B5104AEA
:1005B0000024904201D20F4B01E00D4B103B0E4A3C
:1005C000114205D01E2202EAD12502682A4002E02B
:1005D000406900F08002880001D5586800E0186882
:1005E000064B1840084201D002B10124204630BD1C
:1005F00010640240006002403C0F3C0F7D0F7D0FF5
:1006000010B50C0601F01E0304D54AB1446944F04C
:100610008004446180290CD042B10168194307E08D
:10062000426922F080024261802902D00168994328
:10063000016010BD30B50368124ACC6813400A68E7
:100640002243D1E905452C432243CC6922430C6A5D
:1006500022434C6A22438C6A22434C6B22438C6BAC
:1006600022431A430260426922F00703D1E90B24B6
:1006700022431A4342610A6942604A68826089687B
:10068000C16030BD3F801CF070477047F0B500235B
:10069000012403270D6804FA03F21540954242D164
:1006A000D0F800C05E0007FA06F52CEA050CC0F889
:1006B00000C091F804C0D0F800E00CFA06FC4CEA47
:1006C0000E0CC0F800C091F804C0BCF1010F02D0BC
:1006D000BCF1020F1FD1D0F808C02CEA050CC0F8FD
:1006E00008C091F805C0D0F808E00CFA06FC4CEA06
:1006F0000E0CC0F808C0D0F804C02CEA020CC0F8F8
:1007000004C0426891F806C00CFA03FC1FFA8CFC86
:1007100042EA0C024260C268AA43C260CA79C56854
:10072000B2402A43C2605B1C102BB3D3F0BD4B0711
:10073000DB0E9A40C90810B500EB8100016A0F2456
:100740009C40A1430162016A1143016210BD02464F
:10075000002012690A4200D001207047FEE7FEE740
:10076000704708B538208DF8000000208DF8010092
:100770008DF8020001208DF80300684600F002F8B1
:1007800008BD000070B50F21C478027801234FF036
:10079000E026E4B1124C246804F4E064C4F5E0649B
:1007A000C4F30724C4F10405E1404478AC408578E3
:1007B0000D4025430B4C29011155007800F01F0115
:1007C0008B40400906EB8000C0F8003170BD02F09C
:1007D0001F008340500906EB8000C0F8803170BDD7
:1007E0000CED00E000E400E0024908430249086023
:1007F000704700000000FA050CED00E070477047FC
:10080000044A0029116801D0014300E081431160CE
:100810007047000030380240044A0029116801D0B6
:10082000014300E0814311607047000040380240FE
:10083000044A0029116801D0014300E0814311609E
:100840007047000044380240044A0029116801D072
:10085000014300E0814311607047000024380240EA
:1008600070B5204A1168204C11F00C0104D06610BC
:10087000042903D0082903D004601BE0066019E0B6
:100880001849091F0B68C3F380550B6803F03F0339
:1008900015B1B6FBF3F301E0B4FBF3F30C680968A0
:1008A000C4F388146343C1F30141491C4900B3FBFD
:1008B000F1F1016011680F2303EA11110B4B5C5C2D
:1008C0000168E14041601468072505EA94241C5D35
:1008D00021FA04F48460126805EA52329A5CD1402D
:1008E000C16070BD083802400024F400A800002058
:1008F0001CB504460E48012150F82400FFF780FF84
:100900000B480021083830F81400009001208DF8C1
:1009100004008DF806108DF8070002208DF8050000
:100920000448694650F82400FFF7B0FE1CBD0000E3
:10093000B422000818000020044951F820104A6928
:10094000034B33F8100042404A6170471800002002
:10095000AC2200080CB500202749019000900A68DD
:1009600042F480320A604FF4A0630A6802F4003255
:100970000092019A521C0192009A12B9019A9A426D
:10098000F3D10A68920334D5012000901A48403010
:10099000026842F0805202601848026842F48042C5
:1009A00002601548083002680260026842F40042A2
:1009B0000260026842F4A0520260031F104A1A60EB
:1009C0000A6842F080720A600A689201FCD50D4AFA
:1009D00040F205611160016821F0030101600168C6
:1009E00041F0020101600168C1F381010229FAD1DD
:1009F0000CBD00900CBD00000038024000700040AB
:100A000008544007003C024010B5FFF715FC01F008
:100A100011FB18B104494FF080500860BDE8104048
:100A20000020FFF710BC000004ED00E0124810B5F4
:100A3000016841F4700101601048016841F0010152
:100A400001600E4A00210832116002680C4B1A4006
:100A50000260031D0B4A1A60026822F480220260C1
:100A600006480C300160FFF775FF03494FF0006046
:100A70008039086010BD000088ED00E000380240B9
:100A8000FFFFF6FE1030002410B501218C07204630
:100A900000F019F8002808D00121204600F006F8DF
:100AA000BDE810400220FFF747BF10BDC9430182D7
:100AB00070470029018802D041F0010101E021F0D6
:100AC00001010180704702460020138A92890B427F
:100AD00002EA010202D0002A00D001207047002A59
:100AE000828901D00A4300E08A4382817047000076
:100AF00030B50288164B174C98420DD0A0420BD04F
:100B0000B0F1804F08D0144DA84205D0134DA84233
:100B100002D0134DA84203D122F070054A882A431F
:100B2000104DA84206D0104DA84203D022F44075C3
:100B30000A892A4302804A68C2620A88028598426A
:100B400001D0A04201D1897A01860121818230BD84
:100B50000000014000040140000400400008004083
:100B6000000C004000100040001400400029818962
:100B700002D041F4005101E021F40051818170471D
:100B80000246002012880A4200D00120704700006F
:100B90007FB50446008A0D4620F44051E88808439A
:100BA0002082A08941F20C618843A9882A891143D7
:100BB0006A8902431143A181A08A20F44071A88967
:100BC0000843A0826846FFF74BFE1D48844202D0CE
:100BD0001C48844201D1039800E00298A1890904CD
:100BE000002900EBC00101EB0010296802DA4FEA8E
:100BF000410101E04FEA8101B0FBF1F26420B2FB58
:100C0000F0F14FEA01114FEA11136FF018056B4331
:100C100002EB8302A3891D044FF0320306D503EBD8
:100C2000C202B2FBF0F000F0070005E003EB021295
:100C3000B2FBF0F000F00F00084320817FBD000000
:100C40000010014000140140C1F308018180704789
:100C500070B50C46084D0AE034F8021B2846FFF731
:100C6000F3FF80212846FFF78BFF0028F4D020886F
:100C70000028F6D170BD0000004C0040FEE702E005
:100C800008C8121F08C1002AFAD170477047002017
:100C900001E001C1121F002AFBD170470549012064
:100CA000096809B1002070470349C9690029F9D1D1
:100CB000704700008C0100204400002030B58DB04A
:100CC000FFF742FB01210846FFF79AFD01210802C8
:100CD000FFF7AEFD01218805FFF792FD01210420F9
:100CE000FFF78EFDFFF72EFC3F20032506908DF8C1
:100CF0001C5000248DF81F4006A93448FFF7C6FC9D
:100D0000302006908DF81C508DF81F4006A9304801
:100D1000FFF7BCFC08940B940A9408A80994FFF709
:100D2000EBFA8DF80440012000948DF80500029440
:100D3000039404940820274C8DF81400694620463B
:100D4000FFF70EFB062301220F212046FFF72EFBA3
:100D5000062302220E212046FFF728FB062303224A
:100D600000212046FFF722FB062304220121204612
:100D7000FFF71CFB0623052202212046FFF716FB86
:100D800006231A4603212046FFF710FB06230722FD
:100D900004212046FFF70AFB0623082205212046EE
:100DA000FFF704FB01212046FFF7C4FA012120468A
:100DB000FFF798FA012210210748FFF721FC0121D3
:100DC0002046FFF7ADFA0DB030BD00000000024034
:100DD0000008024000200140106402401FB50121BC
:100DE0000846FFF719FD4AF20F40ADF80000002059
:100DF00040F2CF71ADF802000191ADF808004FF05C
:100E0000804469462046FFF773FE01212046FFF724
:100E100050FE1C208DF80C0001208DF80F0003A857
:100E2000FFF7B0FC012211462046FFF758FE1FBD18
:100E3000F0B50646012187B0C804FFF7EDFC01219B
:100E40000420FFF7DDFC02208DF8050000248DF85A
:100E50000640012541028DF807501F4F00918DF883
:100E6000040069463846FFF711FCE80200908DF84F
:100E7000074069463846FFF709FC08220A21384630
:100E8000FFF755FC08220B213846FFF750FCADF860
:100E90000C4068030296ADF80E00ADF810400C202F
:100EA0000E4EADF81200ADF8144002A93046FFF71F
:100EB0006FFE01213046FFF759FE34208DF81800EF
:100EC0008DF819408DF81A408DF81B5006A8FFF7D1
:100ED00059FC07B0F0BD000000080240004C004083
:100EE0001FB50120FFF704FD0020FFF701FD0320DF
:100EF000FFF7FEFC0220FFF7FBFC4FF44070FFF70A
:100F000073FC00F0CDFAFFF7D9FEFFF767FF4FF44F
:100F1000E130FFF78DFF00240094019402942346F2
:100F2000802216A11A48039400F0AAFF00940194AD
:100F300002940023802217A11B48039400F0A0FF15
:100F40000094019402940023802218A11D48039468
:100F500000F096FF009401940294002380221AA1CD
:100F60001F48039400F08CFF00F004FD4FF4617003
:100F700000F042FC04B0002010BD00004C6564206D
:100F8000426C696E6B205461736B20426C75650016
:100F9000251500084C656420426C696E6B20546115
:100FA000736B2052656400008D1500084C65642049
:100FB000426C696E6B205461736B20477265656E7D
:100FC000000000006D1500084C656420426C696EDD
:100FD0006B205461736B204F72616E676500000077
:100FE0007B15000870B50B4C054620684560A0686D
:100FF0002168854201F1040104D2206BBDE87040F4
:1010000000F0D8BAE06A00F0D5FAA06A854200D2B2
:10101000A56270BD4400002010B500F0EFFA0C4C42
:10102000206880B90B4800F0B7FA0A48143000F085
:10103000B3FA0848A0601430E06000220C210A20B6
:1010400000F04AFD2060BDE8104000F0E5BA000065
:1010500034000020D800002030B403680D46002B77
:101060000CD0026CC1688C18C46041688C4200D3FB
:10107000C360C168284630BCFFF7FEB830BC70477B
:1010800070B51546026C044682B1BDB1E068FFF749
:10109000F3F8E168206C091AE1602268914202D2FB
:1010A0006168081AE060022D15D019E02068B8B90F
:1010B000606800F0FBFB0020606011E0A068FFF7B3
:1010C000DBF8216CA0680844A0606168884207D3FF
:1010D0002068A06004E0A06B10B1A06B401EA0636C
:1010E000A06B401CA06370BD06480168C96A09B1C5
:1010F00000207047044909680129F9D8816A80688D
:10110000081A704744000020000100200E4D0F4CCB
:101110002868012801D900F045FBFFF7E5FF022808
:10112000F6D300F061FCA06AA168884202D2FFF702
:1011300083F8FEE7FFF7D8FF022801D300F0B2FAE8
:1011400001F00EF8E4E70000000100204400002058
:1011500070B500240B4D41609142006106D8D11A50
:101160008269914206D2011DE86807E09A4203D2E3
:10117000994201D3012403E0011DA86800F01AFA86
:10118000204670BD3400002030B587B0254D3EE0CC
:10119000069C606910B1201D00F0B2F902A800F0B1
:1011A00089F80246049830B1012830D002281FD0B7
:1011B00003282CD128E00598A16903460144204664
:1011C000FFF7C6FF012822D1616A20468847E069FF
:1011D00001281CD1002000900598A1690023421825
:1011E0001946204601F038F888B9FFF725F8FEE7E0
:1011F0000598A06128B1811813462046FFF7A8FF83
:1012000005E0FFF719F8FEE7204600F00FFA00238B
:101210001A4604A9286800F07DFC0028B8D107B060
:1012200030BD0000340000202DE9FC410F4605468A
:1012300000F0DAFB01A800F03DF80446019818B16F
:1012400000F08EFFBDE8FC81194E37BBA54224D8C3
:1012500000F086FFB0682746C068C468201D00F013
:101260004FF9E069012811D1A0692B4641193A468E
:101270002046FFF76DFF012808D1002003460146F4
:1012800000902A46204600F0E7FF18B1616A204628
:101290008847D7E7FEF7D0FFFEE7291B306800F04C
:1012A0008DFA00F05DFF0028CCD100F07BFAC9E791
:1012B0003400002070B5054600F0B0FE064E04462E
:1012C0007068844203D200F009F8012000E0002099
:1012D00028602046746070BD34000020F8B5164DBB
:1012E0001FE0C068C4680668201D00F009F9616A43
:1012F00020468847E069012813D1A0693044B042F4
:1013000006D924616060211DA86800F053F908E047
:1013100000200346014600903246204600F09CFF24
:1013200038B1A86801680029DBD1E968C5E9021075
:10133000F8BDFEF781FFFEE734000020074CA068EF
:10134000016841B1C0680021D0F80000FFF76CFFD0
:10135000FFF71AFFF3E701210020F7E73400002030
:1013600070B5044600F04AF904F124050AE0606A09
:1013700058B1284600F0C4FE08B100F057FAA06C3E
:10138000401EA064A06C0028F1DC4FF0FF36A6647C
:1013900000F042F900F032F904F110050AE020698A
:1013A00058B1284600F0ACFE08B100F03FFA606C7E
:1013B000401E6064606C0028F1DC6664BDE870402B
:1013C00000F02AB92DE9F0410446002500F00CFB9D
:1013D000274A02F10801506801F1080360B9254865
:1013E000002720F00700C1E90007234EC3E900767B
:1013F000C0E90036012050601F48401E94B30834F5
:10140000660704D004F00706C6F108063444661ED9
:10141000864227D216480968083001E0084631465E
:101420004E68A64202D20E68002EF7D1994219D01A
:1014300005680B68036048680835001B10280DD943
:101440000B1958600A484C6008305E6800E020467E
:1014500004686768B742FAD31C6003604868116883
:10146000081A106000F07CFE2846BDE8F0810000FC
:1014700090000020BC010020F82B010010B5031FD4
:101480004FF080741C601B1F1960191F00230B6034
:1014900014390A60091FDA1E44380A6010BD0000C2
:1014A0002DE9FC4101210420FFF7AAF9C02000909A
:1014B00000208DF804008DF8060003208DF805004B
:1014C00001248DF8074069460A48FFF7DFF80A4F04
:1014D00080213846FFF73BF9084E04FA00F5402119
:1014E000307805433846FFF732F98440254335709C
:1014F000BDE8FC81001002400008024030000020DE
:10150000D0E901128A60D0E90112516001694A688C
:10151000824201D182684A60002202610868401E4E
:10152000086070470E4F0F4E0F4D4FF4FA780020B1
:10153000FFF702FA3846FEF773FF00242046FFF754
:101540002FF808497080891C2846FFF781FB641C2E
:10155000A4B2082CF2D3404600F04EF9E7E70000B1
:101560000020014030000020004C00400120FFF727
:10157000E3F9FA2000F040F9F8E74FF46174032032
:10158000FFF7DAF9204600F037F9F8E740F2EE24E9
:10159000204600F031F9FBE700F108014FF0FF327F
:1015A000C0E90112C16001610021016070470021A2
:1015B0000161704730B50B685A1C02D000F1080277
:1015C00002E0026904E02246546825689D42FAD987
:1015D00053684B6099608A60516008610168491CDA
:1015E000016030BD42684A6093688B6093685960BF
:1015F000916008610168491C0160704710B5FEF7F1
:101600001BFE04484168491CBFF34F8FBFF36F8F27
:10161000416010BD7800002003494868401E4860C2
:1016200001D1FEF710BE70477800002010B50028E9
:1016300017D0A0F1080400F0D7F90A48616800E06B
:101640001046026853688B42FAD322600460054852
:1016500061680838026811440160BDE8104000F07C
:101660007FBD10BD980000200C486FF07F430C49EF
:1016700002684FF47A70B2FBF0F0B3FBF0F3B2FB08
:10168000F2F2C1E902032D23B3FBF2F20A614FF03B
:10169000E021401E486107200861704700000020DB
:1016A000780000202DE9F0472D4D0446E86884427B
:1016B00000D904464FF0E0284FF00609C8F8109012
:1016C000D8F81810AA68601E02FB00162869864226
:1016D00000D9361A72B6FFF7E1FA0727E8B1C8F861
:1016E00014600020C8F81800C8F8107024B1BFF3C7
:1016F0004F8F30BFBFF36F8FC8F8109062B6D8F825
:101700001010C9030ED5D8F81810AA68711A511A0A
:10171000491EC8F81410641E10E0C8F8107062B6B4
:10172000BDE8F087AB68D8F818105C43621AB2FBCA
:10173000F3F4611C5943891AC8F81410C8F818004A
:10174000FFF75CFFC8F81070204600F03DF9A8686C
:10175000401EC8F81400BDE8F047FFF75DBF000069
:101760007800002010B5FEF771FD0C4910280AD34F
:101770004FF0E022104490F8F0030A78904202D231
:10178000FEF75AFDFEE706480068496900F4E0608C
:10179000884202D9FEF750FDFEE710BD7800002018
:1017A0000CED00E004494FF080500860BFF34F8F0C
:1017B000BFF36F8F7047000004ED00E070B50D4679
:1017C0000446FFF71BFF616C4FF00000491C00D17D
:1017D0006064A16C491C00D1A064FFF71DFFA06BE1
:1017E00020B9294604F1240000F048F82046BDE85D
:1017F0007040FFF7B5BD000010B502000FD000F03B
:10180000F3F80948816800688C18001DFFF778FE1E
:101810002046FFF7E7FB00F0A3FC002803D1BDE85A
:101820001040FFF7BFBF10BD440000200149012058
:10183000C86170474400002070B50C4680B10D4D62
:1018400029681831FFF7B6FE2868001DFFF758FE1B
:10185000601C08D0A8682044BDE87040FFF7C2BBF8
:10186000FEF7EAFCFEE72968BDE87040091D024862
:10187000FFF7B8BE44000020A001002070B50D465F
:1018800070B1094C21681831FFF7ACFE2068001DCB
:10189000FFF736FEA0682844BDE87040FFF7A2BB02
:1018A000FEF7CAFCFEE700004400002010B504006B
:1018B0001BD0616CE06A884217D0201DFFF720FE24
:1018C000606CE062C0F105000849A061E06ACA6886
:1018D000904200D9C860064900EB800001EB80000F
:1018E000211DBDE81040FFF77DBE10BD4400002063
:1018F0000001002070B5040029D0154DE06A296868
:10190000C96A884223D22868124EC06AC0F1050015
:10191000A061E16A606901EB810106EB8101884207
:1019200012D1201DFFF7ECFD2868C06AE062E9686B
:10193000884200D9E86000EB800006EB8000211DA2
:10194000BDE87040FFF74EBE2868C06AE06270BD17
:10195000440000200001002010B528B104490A6AA3
:1019600002608968416010BDFEF766FCFEE700007A
:10197000440000201FB500240094019402942346E3
:1019800080220DA10E48039400F07AFA012803D1B9
:1019900000F040FC012804D000280CD1FEF74CFCDC
:1019A000FEE7FEF749FC0748012101618460BDE8BC
:1019B0001F4000F04DB81FBD49444C4500000000D9
:1019C0000D11000844000020064910B58A688B6A92
:1019D00002449A4202D9FEF72FFCFEE78A681044BF
:1019E000886010BD4400002002484169491C4161E3
:1019F0007047000044000020134910B54A6913489D
:101A000032B10120C86110BDD2B1CA68521ECA608D
:101A1000CA6802EB820250F82220002ACA68F3D07A
:101A200002EB820200EB820000F108034268526878
:101A300042609A4201D152684260D068086010BD8D
:101A4000FEF7FAFBFEE70000440000200001002042
:101A50001CB51D4908780190FF20087008788DF8A2
:101A600000009DF80000194C00F050002070072085
:101A7000606107E09DF80020A0F101004FEA4202FA
:101A80008DF800209DF800201206F3D4000200F427
:101A9000E0606061019808700D48016841F47001D0
:101AA0000160016841F070410160FFF7DDFD002039
:101AB0006060FEF78FFB0748016841F0404101601C
:101AC000FEF77EFB00201CBD00E400E07800002053
:101AD00020ED00E034EF00E070B50E46050016D0B2
:101AE0004C20FFF76FFC040011D005FB06F0401CF2
:101AF000FFF768FC206038B1C4E90F560121204689
:101B000000F097F8204670BD2046FFF78FFDFEF7E6
:101B100093FBFEE72DE9FF41002582B098460E4673
:101B2000040002D000271EB107E0FEF785FBFEE7A8
:101B3000206C10B1FEF780FBFEE7FFF75FFDA06BA6
:101B400050B331462046E568FFF786FAB8F1000F3A
:101B500010D0E560606A38B104F1240000F0D0FADA
:101B600010B100BFFFF71EFEFFF756FD012006B0C3
:101B7000BDE8F081A06B401EA063206810B900F0A2
:101B800039FA606020690028EED004F1100000F0FE
:101B9000B7FA0128E6D0E7E7049808B11DB106E0DE
:101BA000FFF73AFD1DE06846FFF7D6FE0125FFF777
:101BB00033FDFFF719FFFFF721FD606C401C00D1DA
:101BC0006764A06C401C00D1A764FFF725FD04A941
:101BD000684600F029F930B12046FFF7C1FB00F05C
:101BE000BFFA0020C3E7FFF709FDA06B38B1FFF78C
:101BF00013FD2046FFF7B4FB00F0B2FA9DE7FFF7B4
:101C00000BFD206830B9FFF7F9FC6068FFF772FE42
:101C1000FFF702FD04F124000499FFF70DFE2046B2
:101C2000FFF79EFB00F09CFA002886D1FFF7BAFD73
:101C300083E770B50D46040023D0FFF7DFFCD4E93D
:101C40000F20216802FB001161600021A16321685F
:101C5000A1600A46E06B216C401E00FB01214FF0A1
:101C6000FF30E1606064A06404F1100065B1FFF72B
:101C700093FC04F12400FFF78FFCFFF7CDFC01205B
:101C800070BDFEF7D9FAFEE721690029F5D000F012
:101C900037FA0128F1D1FFF785FDEEE72DE9FF4185
:101CA000002682B01D468846040003D0B8F1000F1C
:101CB00003D007E0FEF7C0FAFEE7206C10B1FEF794
:101CC000BBFAFEE70027022D05D1E06B012802D008
:101CD000FEF7B2FAFEE7FFF791FCA06BE16B8842DA
:101CE00005D3022D03D00498B0B1C6B11BE02A463B
:101CF00041462046FFF7C4F9606A38B104F1240078
:101D000000F0FEF9012801D1FFF74CFDFFF784FC3C
:101D1000012006B0BDE8F081FFF77EFC1DE06846BB
:101D2000FFF71AFE0126FFF777FCFFF75DFEFFF7CE
:101D300065FC606C401C00D16764A06C401C00D145
:101D4000A764FFF769FC04A9684600F06DF830B19C
:101D50002046FFF705FB00F003FA0020D9E7FFF764
:101D60004DFCA06BE16B884210D1FFF755FC04F1EC
:101D700010000499FFF760FD2046FFF7F1FA00F02C
:101D8000EFF90028A7D1FFF70DFDA4E7FFF744FC0A
:101D90002046FFF7E5FA00F0E3F99CE72DE9F04172
:101DA0001D4616460F46040001D01FB107E0FEF79E
:101DB00043FAFEE7206C10B1FEF73EFAFEE7022D73
:101DC00005D1E06B012802D0FEF736FAFEE7FFF7F7
:101DD000C9FCFEF731FA8046A06BE16B884208D35C
:101DE000022D06D000244046FEF72DFA2046BDE81D
:101DF000F0812A4639462046FFF742F9A06C401C84
:101E000004D0A06C401CA0640124ECE7606A0028A8
:101E1000FAD004F1240000F073F90028F4D0002E69
:101E2000F2D001203060EFE770B50D46040019D004
:101E3000DDB1FFF7E3FB114A91682868431C0FD01E
:101E40002368126A934202D062688A4210D962689B
:101E5000891A81420CD2401A28602046FFF77CFD87
:101E6000002406E0FEF7E8F9FEE7FEF7E5F9FEE7F5
:101E70000124FFF7D1FB204670BD00004400002084
:101E80002DE9FF5F1546DDE90E68109F8A465FEA7F
:101E9000000B04D0052E05D3FEF7CEF9FEE7FEF7C2
:101EA000CBF9FEE74820FFF78DFA04001CD0A8000C
:101EB00081469FB13846206398B1A5224946FEF776
:101EC000EDF96FF00301206B01EB8501084420F070
:101ED000070778070BD0FEF7AFF9FEE7FFF772FAB6
:101EE000E9E72046FFF7A2FB4FF0FF347AE05146C6
:101EF0003546002022180B5C82F834300A5C12B19F
:101F0000401C1028F6D3002184F84310052D00D37F
:101F10000425E562201D6564FFF749FB04F1180004
:101F2000FFF745FBC5F105012461A16164625946D3
:101F30003846039AFFF7A2FA2060B8F1000F01D0EB
:101F4000C8F80040FFF75AFB284D6868401C6860DD
:101F50002868DFF89C8010B1286920B328E02C6045
:101F60006868012824D1002707EB870108EB81006E
:101F7000FFF712FB7F1C052FF6D31D486430FFF7D7
:101F80000BFB1B487830FFF707FB19488C30FFF735
:101F900003FB1748A030FFF7FFFA15486430E862EA
:101FA0001430286304E02868C06AB04200D82C606E
:101FB000686A401C6862E06AE968884200D9E860A3
:101FC00000EB800108EB8100211DFFF70BFB0124D2
:101FD000FFF722FB286928B12868C06AB04201D205
:101FE000FFF7E0FB04B02046BDE8F09F440000206E
:101FF00000010020014800687047000044000020F4
:102000000548016919B1406918B1022070470020E4
:1020100070470120704700004400002010B5FFF712
:10202000EDFA03488468FFF7F7FA204610BD000078
:10203000440000202DE9F0472F4C0027606928B1AB
:10204000A069401CA0613846BDE8F087A068401C2C
:10205000A060A6684FF0FF39A6B9E06A006810B129
:10206000FEF7EAF8FEE7E06A216BE1622063206A8E
:10207000401C2062E06A0068E8B1E06AC068C0689D
:102080004068A062A06ADFF87480864209D3E06AE3
:10209000006890B1E06AC068C568686886420ED280
:1020A000A0622068C06A00EB800158F82100012876
:1020B000C9D90127C7E74846E3E74846F0E7281DA6
:1020C000FFF71EFAA86A18B105F11800FFF718FA11
:1020D000E86AE168884200D9E06000EB800108EB23
:1020E0008100291DFFF77EFAE86A2168C96A8842E3
:1020F000CDD30127CBE700004400002000010020E1
:1021000070B5C068C46854B104F118000646FFF702
:10211000F7F9114D686928B13146104811E0FEF712
:102120008BF8FEE7201DFFF7EBF9E06AE9688842CB
:1021300000D9E860094900EB80008C3901EB800090
:10214000211DFFF74FFAE06A2968C96A884201D366
:10215000012070BD002070BD440000208C010020D3
:102160002DE9F047294C00273E46606938B1FFF75A
:1021700045FA6069401E6061606918B140E0FEF791
:102180005BF8FEE761682248D1B3A0F18C09804674
:10219000D8F80010E1B1D8F80C00C56805F11800B6
:1021A000FFF7AEF9281DFFF7ABF9E86AE16888424E
:1021B00000D9E06000EB800109EB8100291DFFF7E9
:1021C00011FAE86A2168C96A8842E1D30126DFE78B
:1021D000A06940B90AE000BFFFF72CFF00B101265B
:1021E000A069401EA061A0690028F5D1012E02D08F
:1021F000E069012804D100200127E061FFF7D2FA4D
:10220000FFF70AFA3846BDE8F087000044000020D6
:102210008C0100201FB5FEF7FFFE0B48006868B177
:1022200000200221CDE9001002900346CA0103906C
:1022300006A10848FFF724FE002802D1FDF7FCFFA5
:10224000FEE704B010BD000034000020546D722081
:10225000537663003D130008FEB5104C1D4603463F
:1022600027680020089E002F08D08DE80E0035B1A9
:1022700000232A4669463846FFF790FDFEBDFFF76A
:10228000BFFE01284FF0000305D0002269462068F8
:10229000FFF704FDFEBD3246F8E7000034000020E1
:1022A00000000600010001000100000000100020F5
:1022B0000040008008000000080000000800000046
:1022C00008000000E422000800000020B800000020
:1022D0007E0C00089C230008B8000020003101009B
:1022E0008E0C0008007A030A0000000000000000C5
:1022F000010203040607080900000240000C024026
:10230000000C0240000C0240000C024000000000E3
:1023100000000000000000000000000000000000BD
:1023200000000000000000000000000000000000AD
:10233000000000000000000000000000000000009D
:10234000000000000000000000000000000000008D
:10235000FFFFFFFF00000000000000000000000081
:10236000AAAAAAAA000000000000000000000000C5
:1023700000000000F82B0100000000000000000039
:10238000000000000000000000000000000000004D
:0C2390000102030401020304060708090F
:040000050800025598
:00000001FF
