:020000040800F2
:100000004031012055020008610800085D08000821
:100010005F080008E5020008290C00080000000045
:10002000000000000000000000000000A501000822
:100030009707000800000000E9010008DD0A000839
:100040006F0200086F0200086F0200086F020008CC
:100050006F0200086F020008990700086F0200088D
:100060006F0200086F0200086F0200086F020008AC
:100070006F0200086F0200086F0200086F0200089C
:100080006F0200086F0200086F0200086F0200088C
:100090006F0200086F0200086F0200086F0200087C
:1000A0006F0200086F0200086F0200086F0200086C
:1000B0006F0200086F0200086F0200086F0200085C
:1000C0006F0200086F0200086F0200086F0200084C
:1000D0006F0200086F0200086F0200086F0200083C
:1000E0006F0200086F020008EB0800086F020008AA
:1000F0006F0200086F0200086F0200086F0200081C
:100100006F0200086F0200086F0200086F0200080B
:100110006F0200086F0200086F0200086F020008FB
:100120006F0200086F0200086F0200086F020008EB
:100130006F0200086F0200086F0200086F020008DB
:100140006F0200086F0200086F020008E90800084B
:100150006F0200086F0200086F0200086F020008BB
:100160006F0200086F0200086F0200086F020008AB
:100170006F0200086F0200086F0200086F0200089B
:100180006F0200086F020008DFF80CD000F098F84A
:1001900000480047990D00084031012040BA7047DF
:1001A000C0BA7047234B19680868B0E8F04F80F375
:1001B00009884FF0000080F31188704700000000AC
:1001C00003480068006880F3088862B600DF00BF5B
:1001D00008ED00E0DFF80C00016841F470010160F7
:1001E000704700BF88ED00E0EFF30980114B1A68FB
:1001F0001EF0100F08BF20ED108A20E9F04F1060AC
:1002000008B54FF0500080F3118800F0C5FF4FF0A3
:10021000000080F31188BDE8084019680868B0E85C
:10022000F04F1EF0100F08BFB0EC108A80F3098861
:10023000704700BF18000020EFF311804FF050010D
:1002400081F31188704780F311887047EFF30580C0
:10025000704700000648804706480047FEE7FEE773
:10026000FEE7FEE7FEE7FEE7FEE7FEE7FEE7FEE766
:10027000010B00088901000840EA01039B0703D035
:1002800009E008C9121F08C0042AFAD203E011F8D5
:10029000013B00F8013B521EF9D27047D2B201E097
:1002A00000F8012B491EFBD270470022F6E710B57B
:1002B00013460A4604461946FFF7F0FF204610BDD4
:1002C000064C074D06E0E06840F0010394E80700A3
:1002D00098471034AC42F6D3FFF75AFF08150008D0
:1002E00028150008FEE70000094910B588424FF0C4
:1002F000010101D14C0601E04FF08064204600F07E
:100300000DFB2046BDE81040002100F007BB0000B7
:1003100000640040F0B5827A012191402D4A1368B3
:1003200043F0010313602B4B1C331C688C431C608F
:10033000284C284D077B0C3440352E1DA7B9276863
:100340008F4327604788B0F806C047EA0C4790F80B
:100350000AC045F83C700788B0F804C047EA0C476B
:1003600090F80AC046F83C70077B012F0ED1276831
:100370000F4327600468877A4FEA344445F83740D2
:100380004468857A4FEA344446F83540114CC57AC2
:10039000241D002D256806D00D4325600D4C0589D0
:1003A000143415B104E08D43F7E725688D432560CB
:1003B0000589012D02D125680D432560407B012868
:1003C00002D1186808431860106820F0010010601E
:1003D000F0BD0000006600400246002053690B4259
:1003E0004AD0B1F5807F3BD013DC08292ED007DC42
:1003F000012926D0022927D004293DD1D0682BE03D
:10040000102925D0202926D0402935D11069102166
:1004100030E0B1F5004F2BD00BDCB1F5007F22D0DE
:10042000B1F5806F22D0B1F5006F25D190697021B0
:1004300020E0B1F5803F11D0B1F5003F1CD15068EC
:10044000E5E790680D4915E0D06802E0D068DEE786
:10045000106903210EE0106908210BE05068FBE7EA
:100460009069012106E09069022103E0906900E0B3
:100470005068042100F089B97047000001010100B3
:1004800010B50368002223F002030360036843F001
:10049000010303604FF6FF7300E0521C4468E40759
:1004A00001D19A42F9D14268D2073ED08A79012A15
:1004B00002683CD022F080020260CA79012A0268F8
:1004C00038D022F0400202600A7A012A026834D051
:1004D00022F0200202604A7A012A026830D022F01B
:1004E000100202608A7A012A02682CD022F00802E7
:1004F0000260CA7A012A026828D022F0040202604F
:100500008A78CC78920742EA04620C7942EA044283
:100510004C79098842EA0452491E0A43C2610168C3
:1005200021F001010160002114E0002010BD42F023
:100530008002C1E742F04002C5E742F02002C9E76D
:1005400042F01002CDE742F00802D1E742F0040287
:10055000D5E7491C4268D20701D09942F9D14068D9
:10056000C007E2D1012010BD0246002029B10129B7
:1005700002D1106900F003007047D068FAE700006C
:1005800010B500EB0113D3F8B04114F00404147259
:10059000D3F8B0412BD0E408C2F8044003F5D87377
:1005A0001C6804F0020454725C6804F00F04947236
:1005B0005C68240AD4749C68D4729C68240A1473FE
:1005C0009C68240C54739C68240E9473DC68D47368
:1005D000DC68240A1474DC68240C5474DB681B0E79
:1005E000937439B1016941F02001016110BD640DBE
:1005F0001460D3E7C16841F02001C16010BD002143
:10060000016001728172C172017341738173C173A0
:10061000017441748174704730B5024600209368BC
:100620005B0108D49068000101D5012003E09068C7
:10063000C00031D5022002EB0012D2F8803103F065
:100640000103C2F880310B7A43B3D2F880414D6880
:100650001C434B7A43EAC5031C43C2F880418B7AA2
:1006600002F5C07203F00F038B72536823F00F037F
:10067000536053688C7A23435360CB7ACC6843EA47
:1006800004239360CB7B096943EA0121D16011689F
:1006900041F00101116030BD042030BDD2F880313D
:1006A0004C7A23430C8843EA4453C2F88031D6E79E
:1006B000154A21B1012905D0022920D111E0806815
:1006C000124901E0806812490840811A904214D012
:1006D0000ADCA0B16FF0806140180FD002280CD165
:1006E0000FE080680B49EFE7B1F5007F09D00A48B9
:1006F000081803D0B0F5003F03D000207047022057
:10070000704701207047000000010008030000044A
:1007100000030008000003100001FFF72DE9FF416E
:100720000DF12808B8E8F0108DF80A008DF80B10CC
:100730008DF80C20ADF80030ADF80450ADF8024053
:10074000ADF80660ADF808708DF80DC06846FFF78B
:10075000E1FDBDE8FF8170B586B0DDE90A458DF8A1
:10076000092000918DF808308DF80A4000216A4672
:1007700003E06B5C5618491CF372A142F9DB1422AA
:100780006946FFF779FD06B070BD024600200A42B7
:1007900000D00120704770477047F0B50023012456
:1007A00003270D6804FA03F21540954242D1D0F8B0
:1007B00000C05E0007FA06F52CEA050CC0F800C080
:1007C00091F804C0D0F800E00CFA06FC4CEA0E0CDC
:1007D000C0F800C091F804C0BCF1010F02D0BCF118
:1007E000020F1FD1D0F808C02CEA050CC0F808C0D1
:1007F00091F805C0D0F808E00CFA06FC4CEA0E0CA3
:10080000C0F808C0D0F804C02CEA020CC0F804C03C
:10081000426891F806C00CFA03FC1FFA8CFC42EA0D
:100820000C024260C268AA43C260CA79C568B2407D
:100830002A43C2605B1C102BB3D3F0BD4B07DB0E09
:100840009A40C90810B500EB8100016A0F249C4052
:10085000A1430162016A1143016210BDFEE7FEE798
:10086000704708B514208DF8000000208DF80100B5
:100870008DF8020001208DF80300684600F002F8B0
:1008800008BD000070B50F21C478027801234FF035
:10089000E026E4B1124C246804F4E064C4F5E0649A
:1008A000C4F30724C4F10405E1404478AC408578E2
:1008B0000D4025430B4C29011155007800F01F0114
:1008C0008B40400906EB8000C0F8003170BD02F09B
:1008D0001F008340500906EB8000C0F8803170BDD6
:1008E0000CED00E000E400E070477047044A002986
:1008F000116801D0014300E081431160704700009E
:1009000030380240044A0029116801D0014300E058
:10091000814311607047000040380240044A0029BA
:10092000116801D0014300E081431160704700006D
:100930002038024070B5204A1168204C11F00C019B
:1009400004D06610042903D0082903D004601BE0FA
:10095000066019E01849091F0B68C3F380550B683E
:1009600003F03F0315B1B6FBF3F301E0B4FBF3F37F
:100970000C680968C4F388146343C1F30141491C3E
:100980004900B3FBF1F1016011680F2303EA111173
:100990000B4B5C5C0168E14041601468072505EA87
:1009A00094241C5D21FA04F48460126805EA523232
:1009B0009A5CD140C16070BD083802400024F40048
:1009C0007C0000201CB504460E48012150F824008C
:1009D000FFF78CFF0B480021083830F81400009016
:1009E00001208DF804008DF806108DF80700022014
:1009F0008DF805000448694650F82400FFF7CDFE45
:100A00001CBD0000F814000804000020044951F83F
:100A100020104A69034B33F8100042404A61704786
:100A200004000020F01400080CB5002027490190B4
:100A300000900A6842F480320A604FF4A0630A68AA
:100A400002F400320092019A521C0192009A12B9EB
:100A5000019A9A42F3D10A68920334D5012000909A
:100A60001A484030026842F080520260184802681A
:100A700042F4804202601548083002680260026851
:100A800042F400420260026842F4A0520260031F76
:100A9000104A1A600A6842F080720A600A6892017D
:100AA000FCD50D4A40F205611160016821F0030197
:100AB0000160016841F0020101600168C1F3810138
:100AC0000229FAD10CBD00900CBD00000038024094
:100AD0000070004008544007003C024010B5FFF78A
:100AE000ABFB00F03FFC18B104494FF080500860A8
:100AF000BDE810400020FFF7A6BB000004ED00E0B9
:100B0000124810B5016841F4700101601048016895
:100B100041F0010101600E4A0021083211600268B3
:100B20000C4B1A400260031D0B4A1A60026822F443
:100B30008022026006480C300160FFF775FF034910
:100B40004FF000608039086010BD000088ED00E0C3
:100B500000380240FFFFF6FE103000240029818992
:100B600002D041F4005101E021F40051818170472D
:100B70007FB50446008A0D4620F44051E8880843BA
:100B80002082A08941F20C618843A9882A891143F7
:100B90006A8902431143A181A08A20F44071A88987
:100BA0000843A0826846FFF7C5FE1D48844202D074
:100BB0001C48844201D1039800E00298A1890904ED
:100BC000002900EBC00101EB0010296802DA4FEAAE
:100BD000410101E04FEA8101B0FBF1F26420B2FB78
:100BE000F0F14FEA01114FEA11136FF018056B4352
:100BF00002EB8302A3891D044FF0320306D503EBF9
:100C0000C202B2FBF0F000F0070005E003EB0212B5
:100C1000B2FBF0F000F00F00084320817FBD000020
:100C20000010014000140140FEE702E008C8121F56
:100C300008C1002AFAD170477047002001E001C1C5
:100C4000121F002AFBD17047F0B58BB0012108209C
:100C5000FFF74CFE224F092200213846FFF7EEFD38
:100C6000092201213846FFF7E9FD02258DF82450BD
:100C700003208DF82550002408908DF82640012689
:100C80008DF8276008A93846FFF787FD012148063F
:100C9000FFF738FE134F3846FFF726FB8DF81A4052
:100CA0008DF81B4005208DF818008DF81660072080
:100CB0008DF817408DF819000794ADF8145005A968
:100CC0003846FFF7DDFB02A9019470C10021032320
:100CD000012208460094FFF721FD0BB0F0BD000093
:100CE000000C02400064004070B5012188B0C804C7
:100CF000FFF708FE01210420FFF7F8FD02208DF820
:100D0000050000248DF80640012541028DF80750AA
:100D10001F4E00918DF8040069463046FFF73DFDF7
:100D2000E80200908DF8074069463046FFF735FD30
:100D300008220A213046FFF781FD08220B213046A8
:100D4000FFF77CFD4FF416500290ADF80C4068039D
:100D5000ADF80E00ADF810400C200E4EADF81200AC
:100D6000ADF8144002A93046FFF702FF01213046DA
:100D7000FFF7F4FE34208DF818008DF819408DF837
:100D80001A408DF81B5006A8FFF77CFD08B070BD17
:100D900000080240004C00408AB04FF41650FFF7A4
:100DA000A3FFFFF75EFDFFF74FFFFFF728FC0120D1
:100DB000FFF708FE0020FFF705FE0320FFF702FE05
:100DC0000220FFF7FFFD00240094019402942346C3
:100DD000802218A11D48039400F00AFA009401949F
:100DE0000294002380221AA11A48039400F000FA0A
:100DF000194C04A8FFF703FC00F0D2F800F0D0F87B
:100E0000C1B22046FFF754FC0028F2D00021204652
:100E1000FFF7AAFB0028F9D004AA00212046FFF71B
:100E2000AFFB08980DF1100C0090BCE80F0000F02B
:100E30009DF8EBE74C656420426C696E6B20546151
:100E4000736B204F72616E676500000059100008D7
:100E500043414E00111000080064004070B50B4C77
:100E6000054620684560A0682168854201F10401BB
:100E700004D2206BBDE8704000F005B9E06A00F0D4
:100E800002F9A06A854200D2A56270BD1800002058
:100E90002DE9F0410446002500F076F9274A02F1D9
:100EA0000801506801F1080360B92548002720F0C7
:100EB0000700C1E90007234EC3E90076C0E9003608
:100EC000012050601F48401E94B30834660704D0C8
:100ED00004F00706C6F108063444661E864227D28F
:100EE00016480968083001E0084631464E68A642B7
:100EF00002D20E68002EF7D1994219D005680B680E
:100F0000036048680835001B10280DD90B1958607C
:100F10000A484C6008305E6800E020460468676854
:100F2000B742FAD31C60036048681168081A106061
:100F300000F07EFA2846BDE8F08100006400002041
:100F400048010020F82B010010B5031F4FF08074FA
:100F50001C601B1F1960191F00230B6014390A60E5
:100F6000091FDA1E44380A6010BD00000FB40B4997
:100F7000009A0878112A0FD19DF80820002A0BD179
:100F80009DF80A20022A07D1BDF80B2052BAA2F51B
:100F90007E43CA3B00D1487804B07047140000205B
:100FA00000B58DB0FE208DF83000CA208DF83100DC
:100FB00011208DF832000CA90320CDE90001002397
:100FC0001A46112107A8FFF7C6FB142207A902A899
:100FD000FFF752F902A90348FFF71EFB0249887088
:100FE0000DB000BD0064004014000020D0E90112E3
:100FF0008A60D0E90112516001694A68824201D1D8
:1010000082684A60002202610868401E08607047DA
:1010100086B001A8FFF7F3FA0E4C4FF4FA750021E1
:101020002046FFF7A1FA88B102212046FFF7D4F944
:1010300060B101AA00212046FFF7A2FA05980DF140
:10104000040C0090BCE80F00FFF790FF284600F06A
:1010500081F8E4E7006400404FF461740320FFF777
:10106000D5FC204600F076F8F8E700F108014FF0D3
:10107000FF32C0E90112C1600161002101607047C7
:1010800000210161704730B50B685A1C02D000F195
:10109000080202E0026904E02246546825689D4285
:1010A000FAD953684B6099608A60516008610168A1
:1010B000491C016030BD42684A6093688B60936848
:1010C0005960916008610168491C01607047000027
:1010D00010B5FFF7B1F804484168491CBFF34F8FC2
:1010E000BFF36F8F416010BD4C000020034948687A
:1010F000401E486001D1FFF7A6B870474C000020A1
:1011000010B5002817D0A0F1080400F03DF80A48F7
:10111000616800E01046026853688B42FAD322608F
:101120000460054861680838026811440160BDE840
:10113000104000F07DB910BD6C00002004494FF054
:1011400080500860BFF34F8FBFF36F8F7047000070
:1011500004ED00E010B502000FD000F015F80948CA
:10116000816800688C18001DFFF740FF2046FFF7DC
:1011700075FE00F05DF9002803D1BDE81040FFF7CF
:10118000DDBF10BD1800002002484169491C4161C3
:101190007047000018000020134910B54A69134831
:1011A00032B10120C86110BDD2B1CA68521ECA60F6
:1011B000CA6802EB820250F82220002ACA68F3D0E3
:1011C00002EB820200EB820000F1080342685268E1
:1011D00042609A4201D152684260D068086010BDF6
:1011E000FFF72AF8FEE70000180000208C0000201E
:1011F0002DE9FF5F1546DDE90E68109F8A465FEA1C
:10120000000B04D0052E05D3FFF716F8FEE7FFF715
:1012100013F8FEE74820FFF73BFE04001CD0A800AF
:1012200081469FB13846206398B1A5224946FFF711
:1012300035F86FF00301206B01EB8501084420F0C5
:10124000070778070BD0FEF7F7FFFEE7FFF720FE52
:10125000E9E72046FFF754FF4FF0FF347AE05146AC
:101260003546002022180B5C82F834300A5C12B13B
:10127000401C1028F6D3002184F84310052D00D31C
:101280000425E562201D6564FFF7FAFE04F11800ED
:10129000FFF7F6FEC5F105012461A16164625946BC
:1012A0003846039AFFF750FE2060B8F1000F01D0D6
:1012B000C8F80040FFF70CFF284D6868401C6860C4
:1012C0002868DFF89C8010B1286920B328E02C60E2
:1012D0006868012824D1002707EB870108EB81000B
:1012E000FFF7C3FE7F1C052FF6D31D486430FFF7C0
:1012F000BCFE1B487830FFF7B8FE19488C30FFF76A
:10130000B4FE1748A030FFF7B0FE15486430E8621D
:101310001430286304E02868C06AB04200D82C600A
:10132000686A401C6862E06AE968884200D9E8603F
:1013300000EB800108EB8100211DFFF7BCFE0124BA
:10134000FFF7D4FE286928B12868C06AB04201D2EC
:10135000FFF7F4FE04B02046BDE8F09F180000201F
:101360008C0000202DE9F0472F4C0027606928B140
:10137000A069401CA0613846BDE8F087A068401C09
:10138000A060A6684FF0FF39A6B9E06A006810B106
:10139000FEF752FFFEE7E06A216BE1622063206AFC
:1013A000401C2062E06A0068E8B1E06AC068C0687A
:1013B0004068A062A06ADFF87480864209D3E06AC0
:1013C000006890B1E06AC068C568686886420ED25D
:1013D000A0622068C06A00EB800158F82100012853
:1013E000C9D90127C7E74846E3E74846F0E7281D83
:1013F000FFF7FCFDA86A18B105F11800FFF7F6FD2C
:10140000E86AE168884200D9E06000EB800108EBFF
:101410008100291DFFF74FFEE86A2168C96A8842EA
:10142000CDD30127CBE70000180000208C0000205E
:101430002DE9F047294C00273E46606938B1FFF797
:1014400047FE6069401E6061606918B140E0FEF7C8
:10145000F3FEFEE761682248D1B3A0F18C09804613
:10146000D8F80010E1B1D8F80C00C56805F11800F3
:10147000FFF7BCFD281DFFF7B9FDE86AE168884267
:1014800000D9E06000EB800109EB8100291DFFF726
:1014900012FEE86A2168C96A8842E1D30126DFE7C3
:1014A000A06940B90AE000BFFFF75CFF00B1012668
:1014B000A069401EA061A0690028F5D1012E02D0CC
:1014C000E069012804D100200127E061FFF736FE22
:1014D000FFF70CFE3846BDE8F0870000180000203A
:1014E00018010020000006000100010001000000BA
:1014F00000100020004000800800000008000000EC
:101500000800000008000000281500080000002066
:101510008C0000002A0C0008B41500088C00002084
:10152000B43001003A0C000800000240000C0240F8
:10153000000C0240000C0240000C0240617A0000E6
:10154000000000000000000000000000000000009B
:10155000000000000000000000000000000000008B
:101560000000000000000000FFFFFFFF000000007F
:101570000000000000000000AAAAAAAA00000000C3
:10158000000000000000000000000000F82B010037
:10159000000000000000000000000000000000004B
:1015A0000000000000000000010203040102030427
:0415B0000607080919
:040000050800025598
:00000001FF
